:030000000207F7FD
:1007F70078FFE4F6D8FD9000007F007E01E4F0A3C7
:0A080700DFFCDEFA75815102084C97
:100BB50000E600B400B400B400960096006400643A
:100BC50000640064007D0096008C00A0006400B401
:080D0E004100000A41005416E7
:050D1F007E057FDC22CF
:050D24007E017FC222E8
:050D29007E007F78222E
:030D33007F3022EC
:030D36007F002219
:020B3E008F1A0C
:100B4000E478327C00FD7BFF7A0B79B5FE7F2012C2
:100B500005577411251AF582E43400F583E025E089
:080B60002432F8E6FE08E6FF6E
:010B6800226A
:100C2B00120B3E7C007D0A12057DC3EF94D0EE645F
:070C3B008094877E077FD043
:010C4200228F
:030D39007F012215
:080D1700900000E0C313FF226D
:100A7800E4FDFB7AFFFC74017E00A804088005C32E
:100A880033CE33CED8F9FFEE5AFEEF5B4E600D74CD
:100A9800112DF582E43400F583ECF00D8D1F0CBCAC
:020AA80010D468
:010AAA002229
:100C4300120A7875E880759A4B759B08759C38E491
:070C5300900052F0A3F02213
:10073700E4F509F50AF50BF50CF508120D3C500325
:100747000207ED120B948E098F0AE4FDEDC3951F86
:100757005034E509C313F509E50A13F50A30D72321
:1007670074112DF582E43400F583E0FF74017E00F7
:10077700A807088005C333CE33CED8F9420CEE4222
:100787000B05080D80C6E508C39402400FD200E5AB
:100797000894034005120D3F8002C20020001FE5A8
:1007A7000C450B6010900053E004F0702490005249
:1007B700E004F0801CE4900052F0A3F08013900056
:1007C70053E004F07006900052E004F0E4F50BF5F6
:1007D7000C120D1FD3900053E09F900052E09E40F3
:0F07E7000A120D3F80057F02120999AE0BAF0C6D
:0107F60022E0
:1006300075F002A42455F582E5F03400F583E0FE60
:10064000A3E0FFE50F75F002A42419F582E5F0346C
:1006500000F583227429250EF582E43400F5832207
:10066000C3E5109FEE6480F8E50F64809822F0E502
:100670000E75F002A42439F582E5F03400F58322EA
:10068000E50E75F002A42401F582E5F03400F5834F
:1006900022AD14ED3395E0FCC3ED951F7480F86C2A
:1006A0009822E50F75F002A42455F582E5F0340098
:1006B000F583227449250EF582E43400F583227413
:1006C00065250EF582E43400F58322AF14EF3395EF
:1006D000E0FE74292FF58274003EF583E02290003D
:1006E00072E02411F582E43400F583E022E51B5525
:1006F0001DFEE51C551E4E22AE16AF177C007D0375
:1007000002057D7431250EF582E43400F58322E57F
:10071000119FEE6480F8E51064809822FFE515755E
:10072000F00384FEEFC39E22F090006FE0650E227E
:07073000E0FCA3E0FDEF2255
:03000300020925CA
:10092500C0E0C0F0C083C082C0D075D000C005C093
:1009350006C007E59D30E70C539D7F900051E044CC
:1009450040F08014AF96EFFEAD97EDFF900072E09A
:10095500120645EEF0A3EFF0900072E004F0E0FD22
:10096500C3951F4012E4F0900051E04480F0C2EFBF
:100975001206DEF5E8800C74112D1206E44480F5AC
:10098500E8D2EED007D006D005D0D0D082D083D023
:04099500F0D0E0328C
:100AAB00D2AF1209FEC201E4900072F0900051F037
:100ABB00C2A8120C43D2A81206DE42E8D2EE900076
:100ACB0051E030E7F943C910120A42120C10020D23
:010ADB0036E4
:050D2E00D2EFD2EE221D
:100C5A00900051E0547FF0120D2E900051E030E7E1
:050C6A00F943C910224E
:100A4200E4F50A750810120C5AAF081508EF70F693
:100A5200120BD5120D338F08120C5AE4F509E50971
:100A6200C3951F5009AF09120891050980F0AF081C
:050A72001508EF70E320
:010A7700225C
:100C1000E4FFEFC3951F5012EF1206451207301282
:0A0C20000682ECF0A3EDF00F80E86F
:010C2A0022A7
:100B9400E4900073F0F50DE50DC3951F500EAF0DF5
:100BA400120891AF0D120100050D80EBAE1BAF1CB6
:010BB400221E
:020100008F0E60
:10010200E4F511F512F513F518F51975F002EF1271
:100112000648E0FEA3E0FF120680E0FCA3E0C39FD6
:10012200F510EC9EF50F74017E00A80E088005C341
:1001320033CE33CED8F9F51E8E1DAF0E120B3E8E86
:10014200168F17C3E5109517E5161206654005755B
:1001520013018003E4F513E51364016003020268EE
:10016200AF0E120C2B120660400302022812065434
:10017200E0C394FA5006120654E004F01206ED6051
:100182000302024D900000E0F515120654E0C395FB
:1001920015500302024DE4F513120D39EF704BF5C1
:1001A200141206915015E50E6514600B1206CB125F
:1001B200071C4003751301051480E6E513704DF525
:1001C200141206915046E50E6514601AAF14EF330F
:1001D20095E0FE74312FF58274003EF583E012073C
:1001E2001C4003751301051480D7E4F515F51412AC
:1001F2000691500E1206CBC3940240020515051457
:1002020080EDE515C394034003751301E513700AED
:10021200E51E421CE51D421B8031E51E421CE51D08
:10022200421BD2008025120654E0FFD39400401BEB
:10023200EF940340061206547403F0120654E014BD
:10024200F0120654E07004F51BF51C1206B3E4F03C
:100252001206BFE412066EE4F0A31207286003023E
:10026200048674FFF0221206F80D12058FD31206CF
:10027200614008120703E004F0800B900073E00471
:10028200F0120703E4F0900054E0FF3395E0FEC360
:10029200E49FFDE49EFCC3E5109DEC12066550034D
:1002A20002034CD3120661400302034CE51C451BBA
:1002B200600302040712066FE50F8510F01205C5F0
:1002C200120D298E188F1912066FE0FEA3E0FFC3EC
:1002D2009519E5186480F8EE648098402212068031
:1002E200C083C082C3A3E09510FD0582D5820215AA
:1002F200831582E0950FD082D083F0A3ED8036C3C0
:10030200E49519FDE49518FCC3EF9DEC6480F8EECA
:100312006480985027120680C083C082C3A3E095F0
:1003220010FF0582D5820215831582E0950FD082D7
:10033200D083F0A3EF12066EE4F0A3F01206B3E44A
:1003420012072860030204078050900054E0FFFD6A
:100352003395E0FCC3E49DFBE49CFAC3E5109BEA01
:10036200120665503A1206B3E004F01206B3E0FE3C
:1003720075F00A84E5F0701DEEC394C840091206B8
:10038200B3E4F0D201800EEF3395E0FE120680EE68
:100392008FF01205C5120729706B74FFF08066D3C7
:1003A200E5109DEC120665405CE5109517E5161206
:1003B20006655051E51C451B704B90006FE0FFB481
:1003C200FF0AE50EF0E4A3F0A3F08039EFB50E3595
:1003D200900071E004F07006900070E004F0120DDD
:1003E20024C3900071E09F900070E09E40171206B7
:1003F200ED7004D201800E900071E024FFF09000B5
:1004020070E034FFF01206ED60497513011206F830
:100412000D12058F1206605033E5136401702D1220
:1004220006BFE004F0120D178F151206BFE0C39548
:100432001540511206BFE4F0E51EF4FFE51DF4FE7F
:10044200EF521CEE521B120654E4F0221206BFE0D9
:1004520014F022120654E4F0E51F14650E70259084
:100462000073E0C3951F401CE4F513F514120691C6
:10047200500C1206CB6003751301051480EFE513CF
:040482007002C20042
:010486002253
:100BD500E4FFEFC3951F501575F002EF120648129A
:0D0BE50007301206A4ECF0A3EDF00F80E540
:010BF20022E0
:020891008F0FC7
:10089300EF120630E0FCA3E0C39FF511EC9EF510C8
:1008A300AF0F120B3EAD07AC06ECA2E713FEED1340
:1008B300FFD312070F4015E49FFFE49EFEC3120708
:1008C3000F5009120643E0FEA3E08042120643E004
:1008D300FEA3E0FFC394ACEE943F40111206A212B4
:1008E30007302DFFEE3CC313FEEF1380211206A247
:1008F300E0FEA3E0FF1206FC120643E0FCA3E02F98
:10090300FFEC3EFEEF7802CEC313CE13D8F9FF12ED
:1009130006A2EEF0A3EFF0E50F120630EEF0A3EF20
:01092300F0E3
:0109240022B0
:030D3C00A20122EF
:030D3F00D20122BC
:1009FE00E4FFEFC3951F502B74292F120658E4F015
:100A0E0074492F1206B7E4F074652F1206C3E4F092
:100A1E00EF120671E4F0A3F074312F120707E4F021
:100A2E000F80CFE4F51BF51C90006F74FFF0E4A36C
:030A3E00F0A3F032
:010A41002292
:020999008F0DC0
:10099B0090006EE004F0700690006DE004F09000A3
:1009AB006DE0B40008A3E0B50D03120BD5D3900096
:1009BB006EE0950D90006DE094004036E4F50EE589
:1009CB000EC3951F5009AF0E120891050E80F0E56E
:1009DB000D75F002A4FFC390006EE09F90006DE0D8
:1009EB0095F0400EE4F0A3F0C200120C101209FEB9
:0209FB00C20137
:0109FD0022D7
:100B690043F62075C990D2AF120AAB900051E0FF4D
:100B790030E70E75C990EF547FF01207378E2F8F2B
:0B0B8900303002E7C202120D4580E090
:03001B00020BF3E2
:100BF300C0E0C0D0758DF0758B5F0531E531C394CE
:0D0C0300054005753100D202D0D0D0E0329E
:03002B00020D4281
:030D4200C2FE32BC
:010D4500228B
:100ADC0043C20453C2F743C20153C2FD4391405376
:100AEC00917F4391105391DFC2C1C2C0C297C2968D
:100AFC004392105392DFC29243A11053A1DFC2A6BE
:010B0C0022C6
:0F0CF000438905E4F58CF58AC28CD2A9D28C22F7
:100C9900438910438E01758DF0758B5FC28ED2AB7F
:030CA900D28E22C6
:100CE00075FC0375F96375FB3275FA1975F8812285
:100B0D0043B20453B2F743B21053B2DF43B10153B2
:100B1D00B1FD43B10453B1F743B11053B1DF43A15C
:100B2D004053A17FC2B1C2B2C2B4C2B5C2B6D2A740
:010B3D002295
:010D4600228A
:0F0CFF008FED8DEC75EAF075EE0A000000002213
:100CAC00E42FFFE4341FF5008F008F82F583E4936B
:020CBC00FF2215
:100CBE00AE8DAC8BAF06E4FD120CFFAF040D020C33
:010CCE00FF26
:100CCF00AE8DAC8BAF067D02120CFFAF040D020C84
:010CDF00FF15
:060C6F008B218A2289237B
:0E0C7500E4FF120CAC8F247F01120CAC8F2513
:010C8300224E
:060C84008B268A27892857
:0E0C8A007F02120CAC8F297F03120CAC8F2A54
:010C98002239
:10081100020B69E493A3F8E493A34003F68001F289
:1008210008DFF48029E493A3F85407240CC8C333E8
:10083100C4540F4420C8834004F456800146F6DFB7
:10084100E4800B0102040810204080900D0EE47E2C
:10085100019360BCA3FF543F30E509541FFEE493AC
:10086100A360010ECF54C025E060A840B8E493A373
:10087100FAE493A3F8E493A3C8C582C8CAC583CA9E
:10088100F0A3C8C582C8CAC583CADFE9DEE780BE56
:010D160000DC
:10048700E709F608DFFA8046E709F208DFFA803E57
:1004970088828C83E709F0A3DFFA8032E309F60844
:1004A700DFFA8078E309F208DFFA807088828C83AC
:1004B700E309F0A3DFFA806489828A83E0A3F60860
:1004C700DFFA805889828A83E0A3F208DFFA804C3A
:1004D70080D280FA80C680D4806980F28033801011
:1004E70080A680EA809A80A880DA80E280CA80337A
:1004F70089828A83ECFAE493A3C8C582C8CCC583F2
:10050700CCF0A3C8C582C8CCC583CCDFE9DEE780C1
:100517000D89828A83E493A3F608DFF9ECFAA9F040
:10052700EDFB2289828A83ECFAE0A3C8C582C8CC96
:10053700C583CCF0A3C8C582C8CCC583CCDFEADEAF
:10054700E880DB89828A83E493A3F208DFF980CC11
:1005570088F0EF60010E4E60C388F0ED2402B4040A
:100567000050B9F582EB2402B4040050AF232345B1
:0605770082239004D773FB
:10057D00EF8DF0A4A8F0CF8CF0A428CE8DF0A42E92
:02058D00FE224C
:10058F00C2D5EC30E709B2D5E4C39DFDE49CFCEE87
:10059F0030E715B2D5E4C39FFFE49EFE1205DBC31F
:1005AF00E49DFDE49CFC80031205DB30D507C3E41A
:0605BF009FFFE49EFE22F6
:1005C500C5F0F8A3E028F0C5F0F8E58215827002C1
:0605D5001583E038F0225E
:1005DB00BC000BBE0029EF8DF084FFADF022E4CC04
:1005EB00F875F008EF2FFFEE33FEEC33FCEE9DECCD
:1005FB00984005FCEE9DFE0FD5F0E9E4CEFD22ED13
:10060B00F8F5F0EE8420D21CFEADF075F008EF2F5C
:10061B00FFED33FD4007985006D5F0F222C398FD4D
:05062B000FD5F0EA22EA
:00000001FF
