:030000000204E413
:0C04E400787FE4F6D8FD75814302052BFB
:0800030012070D1202FB80FB45
:10070D0012002E7BFF7A00790E1200381207831229
:10071D0006837BFF7A0579707F0C7E001207951298
:05072D0007A90207B15D
:1002FB001207AD7B007A0079221206B3EC4D4E4FFC
:10030B0070030204E37B007A0079227F197E007D63
:10031B00007C00120732E520B4070040030204E022
:10032B00900332F828287302034702037D0203B3BC
:10033B000203E902041F02045502048B20A42FE5DB
:10034B00197010751901FB7A0079087F0AFEFDFC04
:10035B001207327B007A0079081206B3EC4D4E4F30
:10036B00600C20A4097B017D557F55120648752032
:10037B00012220A12FE5197010751901FB7A007964
:10038B00087F0AFEFDFC1207327B007A0079081207
:10039B0006B3EC4D4E4F600C20A1097B027D557FBF
:1003AB00551206487520022220A02FE519701075F2
:1003BB001901FB7A0079087F0AFEFDFC1207327BDC
:1003CB00007A0079081206B3EC4D4E4F600C20A05A
:1003DB00097B037D557F551206487520032220A605
:1003EB002FE5197010751901FB7A0079087F0AFE49
:1003FB00FDFC1207327B007A0079081206B3EC4D34
:10040B004E4F600C20A6097B047D557F5512064884
:10041B007520042220952FE5197010751901FB7AB0
:10042B000079087F0AFEFDFC1207327B007A007907
:10043B00081206B3EC4D4E4F600C2095097B057DE1
:10044B00557F551206487520052220942FE519700B
:10045B0010751901FB7A0079087F0AFEFDFC120763
:10046B00327B007A0079081206B3EC4D4E4F600CCC
:10047B002094097B067D557F551206487520062270
:10048B0020A52FE5197010751901FB7A0079087FEB
:10049B000AFEFDFC1207327B007A0079081206B3C4
:1004AB00EC4D4E4F600C20A5097B077D557F5512F7
:1004BB00064830A42030A11D30A01A30A617309565
:1004CB001430941130A50EE4F5197B887D557F55BA
:0904DB001206488000E4F520221D
:03000B00020607E3
:10060700C0E0C0F0C083C082C0D075D000C000C0B9
:1006170001C002C003C004C005C006C007758AF444
:10062700758CE8120769D007D006D005D004D0032F
:10063700D002D001D000D0D0D082D083D0F0D0E08B
:010647003280
:03001B000207B425
:0107B4003212
:03002B00020028A8
:03002800C2CF3212
:03003B0002074E6B
:10074E00C0E0E59D30E106539DFD753201E59D301B
:0B075E00E006539DFE751801D0E0324C
:0D000E005391CF43923053A18C43A2732233
:0300380002016D55
:09078300439A01539BFED280222F
:0407A90075CF1022D6
:0407AD0075CF1022D2
:0307B100D2AF22A2
:10068300758E07438901758AF4758CE8C28CD2A9EB
:10069300D28C438920758B60758D60C28ED2ABD2AC
:1006A3008EE4F5C875CB83F5CAC2CAD2ADD2CA22CD
:100570008E338F345391F543920A758FC0759D5019
:10058000AE33AF34E4FCFD7B407A42790FF81200C1
:100590006BE47B807A25F9F81205C38F9EAE33AFEA
:1005A00034E4FCFD7B407A42790FF812006BE47B67
:1005B000807A25F9F81205C378081200CB8F95755B
:0305C000A901226C
:0707950089828A83020171D1
:0A001E008F9FE53260FCE4F532220A
:0606E3008B3D8A3E893FB9
:1006E900E4FEEEC39407748094805015AB3DAA3E96
:1006F900A93F8E8275830012003EFF12001E0E80F4
:03070900E17F018C
:01070C0022CA
:060648008F338D348B3569
:10064E007E007F077D007B007A007936120173856C
:10065E003336853437E4F538E535F539E536253763
:10066E0025382539F53A753B0D753C0A7B007A0025
:05067E0079360206E3DD
:06079C0004400000000013
:0A002E00E4F543F542F541F54022E8
:10076900AF43AE42AD41AC40EF2401F543E43EF561
:0A07790042E43DF541E43CF5402266
:09078C00AF43AE42AD41AC402286
:100732008F368E358D348C3312078C12010FAF3603
:0C074200AE35AD34AC3390000402012948
:0607A30012078C02010F99
:1006B3008B338A3489359000041200DF12014DC355
:1006C300E5439BFBE5429AFAE54199F9E54098F841
:1006D300C31200BAE440047F018001FFFEFDFC2247
:1004F000020003E493A3F8E493A34003F68001F21F
:1005000008DFF48029E493A3F85407240CC8C3330C
:10051000C4540F4420C8834004F456800146F6DFDB
:10052000E4800B010204081020408090079CE47EC8
:10053000019360BCA3FF543F30E509541FFEE493D0
:10054000A360010ECF54C025E060A840B8E493A397
:10055000FAE493A3F8E493A3C8C582C8CAC583CAC2
:10056000F0A3C8C582C8CAC583CADFE9DEE780BE7A
:0107A2000056
:10003E00BB010CE58229F582E5833AF583E0225077
:10004E0006E92582F8E622BBFE06E92582F8E222C1
:0D005E00E58229F582E5833AF583E49322DB
:10006B00E88FF0A4CC8BF0A42CFCE98EF0A42CFC34
:10007B008AF0EDA42CFCEA8EF0A4CDA8F08BF0A4B2
:10008B002DCC3825F0FDE98FF0A42CCD35F0FCEB11
:10009B008EF0A4FEA9F0EB8FF0A4CFC5F02ECD39D6
:0F00AB00FEE43CFCEAA42DCE35F0FDE43CFC2243
:1005C300C2D5E830E70FB2D5E4C39BFBE49AFAE463
:1005D30099F9E498F8EC30E717B2D51205F912014E
:1005E300DBE4C39BFBE49AFAE499F9E498F880030B
:1005F3001201DB30D50DE4C39FFFE49EFEE49DFDB5
:04060300E49CFC2255
:1000BA00EB9FF5F0EA9E42F0E99D42F0E89C45F09C
:0100CA002213
:1000CB00E86010ECA2E713FCED13FDEE13FEEF134B
:0400DB00FFD8F02238
:1000DF00BB010DE58229F582E5833AF583020279AA
:1000EF005007E92582F802026DBBFE07E92582F869
:1000FF00020285E58229F582E5833AF583020291B2
:10010F00BB010789828A830202E35005E9F80202E4
:0A011F00D7BBFE05E9F80202EF224B
:10012900BB010DE58229F582E5833AF5830202E3F5
:100139005007E92582F80202D7BBFE07E92582F8B4
:040149000202EF229D
:10014D00BB010789828A830202AE5005E9F80202DB
:10015D00A1BBFE05E9F80202BA89828A830202C7B1
:06016D008A838982E4731D
:10017300EF4E6012EF60010EEDBB010B89828A83A3
:10018300F0A3DFFCDEFA2289F05007F709DFFCA9B0
:0C019300F022BBFEFCF309DFFCA9F02207
:10019F0075F008758200EF2FFFEE33FECD33CDCC17
:1001AF0033CCC58233C5829BED9AEC99E58298409A
:1001BF000CF582EE9BFEED9AFDEC99FC0FD5F0D677
:1001CF00E4CEFBE4CDFAE4CCF9A88222B800C1B9A1
:1001DF000059BA002DEC8BF084CFCECDFCE5F0CBDF
:1001EF00F97818EF2FFFEE33FEED33FDEC33FCEB18
:1001FF0033FB10D703994004EB99FB0FD8E5E4F9D3
:10020F00FA227818EF2FFFEE33FEED33FDEC33FCBF
:10021F00C933C910D7059BE99A4007EC9BFCE99AB3
:10022F00F90FD8E0E4C9FAE4CCFB2275F010EF2FF8
:10023F00FFEE33FEED33FDCC33CCC833C810D707F8
:10024F009BEC9AE899400AED9BFDEC9AFCE899F833
:0E025F000FD5F0DAE4CDFBE4CCFAE4C8F922C6
:0C026D00E6FC08E6FD08E6FE08E6FF22BD
:0C027900E0FCA3E0FDA3E0FEA3E0FF22F8
:0C028500E2FC08E2FD08E2FE08E2FF22B5
:10029100E493FC740193FD740293FE740393FF22B3
:0D02A100E6FB08E6F908E6FA08E6CBF822CD
:0C02AE00E0F8A3E0F9A3E0FAA3E0FB22D3
:0D02BA00E2FB08E2F908E2FA08E2CBF822C4
:1002C700E493F8740193F9740293FA740393FB228D
:0C02D700ECF608EDF608EEF608EFF62253
:0C02E300ECF0A3EDF0A3EEF0A3EFF0228E
:0C02EF00ECF208EDF208EEF208EFF2224B
:00000001FF
