:03000000020AF4FD
:100AF40078FFE4F6D8FD9000007F007E01E4F0A3C7
:0A0B0400DFFCDEFA758174020B4974
:100F720000E600B400B400B40050009600500050E7
:100F8200006400280028009600230037003C00B4CB
:080E84004100000A410036168E
:051051007E9C7F40229F
:051056007E017FC222B3
:05105B007E007F7822F9
:031099007F302283
:03109C007F0022B0
:020F26008F1A20
:100F2800E478557C00FD7BFF7A0F7972FE7F2012F2
:100F38000557740B251AF582E43400F583E025E0A3
:080F48002455F8E6FE08E6FF5F
:010F5000227E
:100FCB00120F267C007D0A12057DC3EF94D0EE64D0
:070FDB008094877E077FD0A0
:010FE20022EC
:03109F007F0122AC
:08104100900000E0C313FF2240
:100E0B00E4FD7BD07A60FCECC3941074809480502A
:100E1B002B7E007401A804088005C333CE33CED8D3
:100E2B00F9FFEE5AFEEF5B4E600D740B2DF582E46D
:0C0E3B003400F583ECF00D8D1F0C80CB13
:010E47002288
:100FE300120E0B75E880759A4B759B42759C38E41D
:070FF300900034F0A3F0228E
:100A2A00E4F509F50AF50BF50CF5081210A25003C6
:100A3A00020AEA120F518E098F0AE4FDEDC3951FCF
:100A4A005034E509C313F509E50A13F50A30D7232B
:100A5A00740B2DF582E43400F583E0FF7E00740107
:100A6A00A807088005C333CE33CED8F9420CEE422C
:100A7A000B05080D80C6AF087E00C3EF9402748090
:100A8A0094804012D20AEF94037480948040051235
:100A9A0010A58002C20A200A1FE50C450B601090BF
:100AAA000035E004F07024900034E004F0801CE487
:100ABA00900034F0A3F08013900035E004F0700643
:100ACA00900034E004F0E4F50BF50C121051D390C9
:100ADA000035E09F900034E09E400A1210A5800580
:090AEA007F02120C96AE0BAF0C5A
:010AF30022E0
:1009230075F002A42437F582E5F03400F583E0FE88
:10093300A3E0FFE50F75F002A42410F582E5F0347F
:1009430000F58322741A250EF582E43400F5832220
:10095300C3E5109FEE6480F8E50F64809822F0E50C
:100963000E75F002A42424F582E5F03400F5832209
:10097300E50E75F002A42401F582E5F03400F58359
:1009830022AD14ED3395E0FCC3ED951F7480F86C34
:100993009822E50F75F002A42437F582E5F03400C0
:1009A300F58322742E250EF582E43400F583227438
:1009B30041250EF582E43400F58322AF14EF33951D
:1009C300E0FE741A2FF58274003EF583E022900056
:1009D3004BE0240BF582E43400F583E022E51B555C
:1009E3001DFEE51C551E4E22AE16AF177C007D037F
:1009F30002057D741F250EF582E43400F58322E59C
:100A0300119FEE6480F8E51064809822FFE5157568
:100A1300F00384FEEFC39E22F0900048E0650E22AF
:070A2300E0FCA3E0FDEF225F
:03000300020C22CA
:100C2200C0E0C0F0C083C082C0D075D000C005C093
:100C320006C007E59D30E70C539D7F900033E044EA
:100C420040F08014AF96EFFEAD97EDFF90004BE0C1
:100C5200120938EEF0A3EFF090004BE004F0E0FD53
:100C6200C3951F4012E4F0900033E04480F0C2EFDD
:100C72001209D1F5E8800C740B2D1209D74480F5C6
:100C8200E8D2EED007D006D005D0D0D082D083D023
:040C9200F0D0E0328C
:100EF500D2AF120D46C20BE490004BF0900033F0D8
:100F0500C2A8120FE3D2A81209D142E8D2EE90008E
:100F150033E030E7F943C910120EBF120FB00210CB
:010F25009C2F
:05106000D2EFD2EE22E8
:100FFA00900033E0547FF0121060900033E030E745
:05100A00F943C91022AA
:100EBF00E4F50A750810120FFAAF081508EF70F66F
:100ECF00120F921210998F08120FFAE4F509E50923
:100EDF00C3951F5009AF09120B8E050980F0AF089B
:050EEF001508EF70E39F
:010EF40022DB
:100FB000E4FFEFC3951F5012EF120938120A2312F3
:0A0FC0000975ECF0A3EDF00F80E8D6
:010FCA002204
:100F5100E490004CF0F50DE50DC3951F500EAF0D5B
:100F6100120B8EAF0D120100050D80EBAE1BAF1CF5
:010F7100225D
:020100008F0E60
:10010200E4F511F512F513F518F51975F002EF1271
:10011200093BE0FEA3E0FF120973E0FCA3E0C39FEA
:10012200F510EC9EF50F74017E00A80E088005C341
:1001320033CE33CED8F9F51E8E1DAF0E120F268E9A
:10014200168F17C3E5109517E51612095840057565
:1001520013018003E4F513E51364016003020268EE
:10016200AF0E120FCB1209534003020228120947A5
:10017200E0C394FA5006120947E004F01209E06065
:100182000302024D900000E0F515120947E0C39505
:1001920015500302024DE4F51312109FEF704BF558
:1001A200141209845015E50E6514600B1209BE1273
:1001B2000A0F4003751301051480E6E513704DF52F
:1001C200141209845046E50E6514601AAF14EF3319
:1001D20095E0FE741F2FF58274003EF583E0120A4B
:1001E2000F4003751301051480D7E4F515F51412B9
:1001F2000984500E1209BEC394024002051505146B
:1002020080EDE515C394034003751301E513700AED
:10021200E51E421CE51D421B8031E51E421CE51D08
:10022200421BD20A8025120947E0FFD39400401BEB
:10023200EF940340061209477403F0120947E014D1
:10024200F0120947E07004F51BF51C1209A6E4F050
:100252001209B2E4120961E4F0A3120A1B6003025C
:10026200048674FFF0221209EB0D12058FD31209D6
:100272005440081209F6E004F0800B90004CE004B0
:10028200F01209F6E4F0900036E0FF3395E0FEC389
:10029200E49FFDE49EFCC3E5109DEC120958500357
:1002A20002034CD3120954400302034CE51C451BC4
:1002B2006003020407120962E50F8510F01205C5FA
:1002C20012105B8E188F19120962E0FEA3E0FFC3C1
:1002D2009519E5186480F8EE64809840221209733B
:1002E200C083C082C3A3E09510FD0582D5820215AA
:1002F200831582E0950FD082D083F0A3ED8036C3C0
:10030200E49519FDE49518FCC3EF9DEC6480F8EECA
:100312006480985027120973C083C082C3A3E095FA
:1003220010FF0582D5820215831582E0950FD082D7
:10033200D083F0A3EF120961E4F0A3F01209A6E45E
:10034200120A1B60030204078050900036E0FFFD92
:100352003395E0FCC3E49DFBE49CFAC3E5109BEA01
:10036200120958503A1209A6E004F01209A6E0FE5A
:1003720075F00A84E5F0701DEEC394C840091209B5
:10038200A6E4F0D20B800EEF3395E0FE120973EE75
:100392008FF01205C5120A1C706B74FFF08066D3D1
:1003A200E5109DEC120958405CE5109517E5161210
:1003B20009585051E51C451B704B900048E0FFB4B2
:1003C200FF0AE50EF0E4A3F0A3F08039EFB50E3595
:1003D20090004AE004F07006900049E004F0121028
:1003E20056C390004AE09F900049E09E40171209D0
:1003F200E07004D20B800E90004AE024FFF09000DF
:1004020049E034FFF01209E060497513011209EB6B
:100412000D12058F1209535033E5136401702D122A
:1004220009B2E004F01210418F151209B2E0C3952F
:100432001540511209B2E4F0E51EF4FFE51DF4FE89
:10044200EF521CEE521B120947E4F0221209B2E0ED
:1004520014F022120947E4F0E51F14650E7025908E
:10046200004CE0C3951F401CE4F513F514120984F7
:10047200500C1209BE6003751301051480EFE513D9
:040482007002C20A38
:010486002253
:100F9200E4FFEFC3951F501575F002EF12093B12E3
:0D0FA2000A23120997ECF0A3EDF00F80E593
:010FAF00221F
:020B8E008F0FC7
:100B9000EF120923E0FCA3E0C39FF511EC9EF510D2
:100BA000AF0F120F26AD07AC06ECA2E713FEED1354
:100BB000FFD3120A024015E49FFFE49EFEC3120A0F
:100BC000025009120936E0FEA3E08042120936E025
:100BD000FEA3E0FFC394ACEE943F401112099512BE
:100BE0000A232DFFEE3CC313FEEF1380211209955B
:100BF000E0FEA3E0FF1209EF120936E0FCA3E02FAC
:100C0000FFEC3EFEEF7802CEC313CE13D8F9FF12ED
:100C10000995EEF0A3EFF0E50F120923EEF0A3EF34
:010C2000F0E3
:010C210022B0
:0310A200A20B227C
:0310A500D20B2249
:100D4600E4FFEFC3951F502B741A2F12094BE4F0E2
:100D5600742E2F1209AAE4F074412F1209B6E4F09A
:100D6600EF120964E4F0A3F0741F2F1209FAE4F0FD
:100D76000F80CFE4F51BF51C90004874FFF0E4A348
:030D8600F0A3F0E7
:010D89002247
:020C96008F0DC0
:100C9800900047E004F07006900046E004F09000F1
:100CA80046E0B40008A3E0B50D03120F92D39000FC
:100CB80047E0950D900046E094004036E4F50EE5D7
:100CC8000EC3951F5009AF0E120B8E050E80F0E56E
:100CD8000D75F002A4FFC3900047E09F900046E026
:100CE80095F0400EE4F0A3F0C20A120FB0120D46C0
:020CF800C20B2D
:010CFA0022D7
:100CFB0043F62075C990D2AF120DCC120EF512101F
:100D0B000FC292D2C1D2B1D2B0D2B2D2B490003310
:100D1B00E0FF30E71475C99043C910EF547FF01210
:100D2B000A2A8E528F53121060300CE1C20C20062F
:0B0D3B0005E4F552F55312081980D2B0
:03001B0002065D7D
:10065D00C0E0C0F0C083C082C0D075D000C000C063
:10066D0001C002C003C004C005C006C007758DFCE3
:10067D00758B17E53E60080540E5407002053F05A6
:10068D0054C3E5549414748094804005755400D27D
:10069D000C0550E5507002054F64A07004E54F64E1
:1006AD000F6003020735F54FF550E52A6401701F01
:1006BD000531E53170020530B40814E530B4070F8B
:1006CD00753000753100752A0075380012106D30C7
:1006DD000811052FE52FD394784008C208752F0017
:1006ED0012107D300911052FE52FD394784008C2E3
:1006FD0009752F00121089300518E54930E21305F0
:10070D0048E54870020547B48408E547B403031271
:10071D00108D300213054CE54C7002054BB44008AA
:10072D00E54BB43803120D8AE5C030E002C2000576
:10073D004AE54A64147014F54AE5C020E00520002E
:10074D0002D204300405AFC0120E480545E54564DC
:10075D00C87007F545D2038549512003030207FEF2
:10076D000544C3E5449414748094805005C2A002DE
:10077D0007FED3E543940074809480405FE55130CB
:10078D00E7270542AF427E00EF94097480948050B4
:10079D0004D2A0805CC3EF940AEE64809480500470
:1007AD00C2A0804D75420080290541AF417E00C336
:1007BD00EF9405748094805004D2A08034C3EF94DC
:1007CD000AEE648094805004C2A0802575410075A6
:1007DD004100E55125E0F551154380150546C2A0B0
:1007ED00E5466418700BD2A0754308C203F544F5B5
:1007FD0046D007D006D005D004D003D002D001D00A
:0C080D0000D0D0D082D083D0F0D0E032F8
:100E8C00013D00C107C186012900063200000000A7
:020E9C00000054
:10081900E553455270030208D4053DC3E53D9402F2
:10082900748094805003020922E4F53D30070302E5
:100839000922D207855222855323E5238522F01206
:1008490005DB08A7001008AD0080085F200008A19B
:10085900400000000922E53B7004E53A642070037A
:10086900020922753A20753B00E52D7025E52E1405
:10087900601114601824027019121065752D007525
:100889002E0122121069752D00752E022212106D8B
:100899008000E4F52DF52E22121071D208221210D3
:1008A90075D20822E53B6480453A606D753A00755A
:1008B9003B80052CE52C30E007121079D202800527
:1008C90012107DC202E4F54BF54C22300748C207ED
:1008D900E5238522F01205DB0906001009130080C3
:1008E90008F52000090140000000091FE53B7004DC
:1008F900E53A64207020801A30081B8003300816FE
:10090900C208E4F52F121085800CE53B6480453A56
:090919007004F53AF53BE4F53DEC
:0109220022B2
:100DCC0043A20153A2FD53C2FE43C20243921053ED
:100DDC0092DF43C20453C2F743B20153B2FD43B294
:100DEC000453B2F743B21053B2DF43B10153B1FD18
:0F0DFC00D2A0C292C2C1C2B0C2B1C2B2C2B422AE
:10100F00438910438E02758DFC758B17C28ED2AB40
:03101F00D28E224C
:100E9E00014900C181C102C10502470000024B0099
:100EAE0000014D00014A00C104C100C10301430805
:0410650075490122A6
:0410690075490222A1
:04106D00754904229B
:041071007549082293
:041075007549102287
:041079007549202273
:04107D00754940224F
:04108100754980220B
:04108500E4F5492223
:04108900E4F549221F
:09102F00E54954FB4404F5492293
:04108D005349FB22A6
:09103800E54954F54402F5492292
:041091005349FD22A0
:041095007549102267
:0D1022006337FFD292C206E4F552F5532267
:081049006337FFC292D20622B8
:100D8A00121022E4F54912107DC205C202F545F59A
:100D9A0042F541D2A0754308C203F544F546F52D44
:100DAA00F52EF52CF533F536F5357537FFE529645B
:100DBA00046005E529B40502C2C1E529B40302C2EB
:020DCA00B42251
:100E4800EF20E0047E0180027E00EEB54E04054DE1
:100E58008003E4F54DEF20E0047F0180027F008FDE
:100E68004EE54DB43215E537700512102280031295
:0C0E78001049E4F54EF54DC204D20022F2
:100B0E00020CFBE493A3F8E493A34003F68001F2F6
:100B1E0008DFF48029E493A3F85407240CC8C333E8
:100B2E00C4540F4420C8834004F456800146F6DFB7
:100B3E00E4800B0102040810204080900E84E47EB5
:100B4E00019360BCA3FF543F30E509541FFEE493AC
:100B5E00A360010ECF54C025E060A840B8E493A373
:100B6E00FAE493A3F8E493A3C8C582C8CAC583CA9E
:100B7E00F0A3C8C582C8CAC583CADFE9DEE780BE56
:010EBE000033
:10048700E709F608DFFA8046E709F208DFFA803E57
:1004970088828C83E709F0A3DFFA8032E309F60844
:1004A700DFFA8078E309F208DFFA807088828C83AC
:1004B700E309F0A3DFFA806489828A83E0A3F60860
:1004C700DFFA805889828A83E0A3F208DFFA804C3A
:1004D70080D280FA80C680D4806980F28033801011
:1004E70080A680EA809A80A880DA80E280CA80337A
:1004F70089828A83ECFAE493A3C8C582C8CCC583F2
:10050700CCF0A3C8C582C8CCC583CCDFE9DEE780C1
:100517000D89828A83E493A3F608DFF9ECFAA9F040
:10052700EDFB2289828A83ECFAE0A3C8C582C8CC96
:10053700C583CCF0A3C8C582C8CCC583CCDFEADEAF
:10054700E880DB89828A83E493A3F208DFF980CC11
:1005570088F0EF60010E4E60C388F0ED2402B4040A
:100567000050B9F582EB2402B4040050AF232345B1
:0605770082239004D773FB
:10057D00EF8DF0A4A8F0CF8CF0A428CE8DF0A42E92
:02058D00FE224C
:10058F00C2D5EC30E709B2D5E4C39DFDE49CFCEE87
:10059F0030E715B2D5E4C39FFFE49EFE120608C3F1
:1005AF00E49DFDE49CFC800312060830D507C3E4EC
:0605BF009FFFE49EFE22F6
:1005C500C5F0F8A3E028F0C5F0F8E58215827002C1
:0605D5001583E038F0225E
:1005DB00D083D082F8E4937012740193700DA3A3AF
:1005EB0093F8740193F5828883E473740293B5F0E6
:0D05FB00067403936860E9A3A3A3A380D84E
:10060800BC000BBE0029EF8DF084FFADF022E4CCD6
:10061800F875F008EF2FFFEE33FEEC33FCEE9DEC9F
:10062800984005FCEE9DFE0FD5F0E9E4CEFD22EDE5
:10063800F8F5F0EE8420D21CFEADF075F008EF2F2F
:10064800FFED33FD4007985006D5F0F222C398FD20
:050658000FD5F0EA22BD
:00000001FF
