:030000000203AA4E
:1003AA0078FFE4F6D8FD9000007F007E01E4F0A318
:0A03BA00DFFCDEFA7581420203FF4A
:0306460001250883
:03001B00020100DF
:10010000C0E0C0D075D000C000C006C007758DF437
:10011000758B48050DE50DAE0C7002050C14D394DB
:1001200020EE94034008750C00750D00052EA29278
:10013000E433F50FFF7E007006E50A70020511EF4B
:1001400064014E704EAF11FED3740F9F7480F89807
:10015000501DC374169F7480984014750900751162
:1001600000752400750800752508750A018024D3E0
:1001700074169FEE6480F8748098501475090075A9
:100180001100752400750800752508750A008003A4
:10019000751100E50A700302024CD3E52594007442
:1001A0008094805003020237E50F640170057529C1
:1001B000010524E50F7057E52964017051E5082514
:1001C000E0F5087529000509AF247E00C3EF940708
:1001D000748094804017D3EF940A74809480500DFB
:1001E00075090075240043080115258021C3EF948B
:1001F00001EE648094804016D3EF9406EE64809400
:1002000080500B7509007524005308FE1525D3E5B1
:1002100024941074809480500AE5099408748094A2
:10022000804029750900752400751100750A007554
:1002300008007525088015750900752400751100E2
:10024000750A00850828752508751000D007D006A6
:07025000D000D0D0D0E03255
:100625005391FB43920412061143CF1012053F80EC
:01063500F8CC
:0306490001340079
:1006110012067512065312066012063612066BC2D6
:04062100970205FC3B
:10053F00E52860461202F6056501056902056D049E
:10054F00057D080580100571200577400583A005FE
:10055F0086C000000595438003225380FD225380FF
:10056F00FC22439041D285225390BEC285220206BF
:10057F009A02069D0206A90206A61206A01206A35B
:07058F001206AC1206AF22B8
:0B066000439A04439A08C282C283221E
:03068E00D28222F3
:03069100D28322EF
:03069400C28222FD
:03069700C28322F9
:10063600439140439180439101C290C296C2972252
:10044400EFFB7A00D394027480948040037F0122EE
:10045400EB4A703DEDFB7A007015ED6004D290809C
:1004640002C290ED6004D2968002C2967F0022EB15
:1004740064014A7015ED6004D2908002C290ED6070
:1004840004D2968002C2967F0022C290C2967F0157
:1004940022EF6401703DEDFB7A007015ED6004D22B
:1004A400908002C290ED6004D2978002C2977F00D0
:1004B40022EB64014A7015ED6004D2908002C29070
:1004C400ED6004D2978002C2977F0022C290C29747
:0604D4007F01227F0122DE
:0D06530043A10143A10243A11043A12022B5
:03069A00D2A022C9
:03069D00D2A122C5
:0306A000C2A022D3
:0306A300C2A122CF
:0306A600D2A422B9
:0306A900D2A522B5
:0306AC00C2A422C3
:0306AF00C2A522BF
:0A066B00439A01439A02439A2022A9
:0306B200D28022D1
:0306B500C28022DE
:0306B800D28122CA
:0306BB00C28122D7
:0106BE002219
:0106BF002218
:06064C00043A000000006A
:0A067500E4F53DF53CF53BF53A22B3
:1005E200AF3DAE3CAD3BAC3AEF2401F53DE43EF508
:0A05F2003CE43DF53BE43CF53A2201
:09067F00AF3DAE3CAD3BAC3A22AC
:1005C6008F398E388D378C3612067F120298AF39E6
:0C05D600AE38AD37AC369000040202B223
:0606880012067F02029839
:100596008B3E8A3F89409000041202681202D6C33D
:1005A600E53D9BFBE53C9AFAE53B99F9E53A98F877
:1005B600C3120257E440047F018001FFFEFDFC22C6
:1005FC00758E07758911758DF4758B48C28ED2ABCB
:05060C00D28ED2AF22E6
:1004DA00E5AD54E04FFEEDC43354E04EF5AD43AD07
:1004EA00807E007401A807088005C333CE33CED8B6
:1004FA00F9FFEE54018FABF5AC43AD40E5AD30E406
:10050A00FBAFAF7541008F42E542C4F8540FC8688B
:10051A00FFE541C454F048FEADAE7C00EF2DF54234
:10052A00EC3EF541C4F854F0C868F541E542C454BC
:04053A000F48F5422F
:01053E00229A
:1003C400020625E493A3F8E493A34003F68001F224
:1003D40008DFF48029E493A3F85407240CC8C3333A
:1003E400C4540F4420C8834004F456800146F6DF09
:1003F400E4800B0102040810204080900646E47E4D
:10040400019360BCA3FF543F30E509541FFEE493FD
:10041400A360010ECF54C025E060A840B8E493A3C4
:10042400FAE493A3F8E493A3C8C582C8CAC583CAEF
:10043400F0A3C8C582C8CAC583CADFE9DEE780BEA7
:0106520000A7
:10025700EB9FF5F0EA9E42F0E99D42F0E89C45F0FD
:010267002274
:10026800BB010DE58229F582E5833AF5830203286F
:100278005007E92582F802031CBBFE07E92582F82E
:10028800020334E58229F582E5833AF583020340C7
:10029800BB010789828A830203925005E9F80203A9
:0A02A80086BBFE05E9F802039E2262
:1002B200BB010DE58229F582E5833AF583020392BB
:1002C2005007E92582F8020386BBFE07E92582F87A
:0402D20002039E2263
:1002D600BB010789828A8302035D5005E9F80203A0
:1002E60050BBFE05E9F802036989828A8302037618
:1002F600D083D082F8E4937012740193700DA3A397
:1003060093F8740193F5828883E4737402936860AA
:06031600EFA3A3A380DFAA
:0C031C00E6FC08E6FD08E6FE08E6FF220D
:0C032800E0FCA3E0FDA3E0FEA3E0FF2248
:0C033400E2FC08E2FD08E2FE08E2FF2205
:10034000E493FC740193FD740293FE740393FF2203
:0D035000E6FB08E6F908E6FA08E6CBF8221D
:0C035D00E0F8A3E0F9A3E0FAA3E0FB2223
:0D036900E2FB08E2F908E2FA08E2CBF82214
:10037600E493F8740193F9740293FA740393FB22DD
:0C038600ECF608EDF608EEF608EFF622A3
:0C039200ECF0A3EDF0A3EEF0A3EFF022DE
:0C039E00ECF208EDF208EEF208EFF2229B
:00000001FF
