:03000000020751A3
:0C075100787FE4F6D8FD758160020798FF
:08000300120CB1120A9180FBFE
:030AD400011C0002
:100E7200E51D700F751D01F51EFB7A017DFA7FA538
:040E8200120B172216
:100E8600E51E700F751E01F51D04FBFA7DFA7FA5A0
:040E9600120B172202
:100D1E00E51B6016E4F51BE51A700F751A01F5193F
:0B0D2E00FB7A0A7DFA7FA5120B17224A
:100D6A00E5247011752401752504751F01F520F518
:060D7A0021F522F5232201
:100D8000E5247011752401752501751F01F520F505
:060D900021F522F52322EB
:100D9600E5247011752401752502751F01F520F5EE
:060DA60021F522F52322D5
:100DAC00E5247011752401752503751F01F520F5D7
:060DBC0021F522F52322BF
:100DC200E5247011752401752506751F01F520F5BE
:060DD20021F522F52322A9
:100DD800E5247011752401752507751F01F520F5A7
:060DE80021F522F5232293
:100DEE00E5247011752401752509751F01F520F58F
:060DFE0021F522F523227D
:100E0400E5247011752401752511751F01F520F570
:060E140021F522F5232266
:100E1A00E5247011752401752520751F01F520F54B
:060E2A0021F522F5232250
:100E9A00E524600FE4F524F525F51FF520F521F585
:040EAA0022F52322E8
:100E3000E5247011752401752505751F01F520F550
:060E400021F522F523223A
:100E4600E5247011752401752508751F01F520F537
:060E560021F522F5232224
:100E5C00E524701175240175250A751F01F520F51F
:060E6C0021F522F523220E
:10062B008F0820906DEF700C120341E552600302AE
:10063B000750806CE508640370028070E508640D58
:10064B007002807AE508640870030206DAE5086434
:10065B00127009120D1E120E8602074AE508641766
:10066B007002807CE508641C700302071EE50864B9
:10067B0021700302070DE5086426700A120D1E1285
:10068B000E86D2808071E508642B6003020750024E
:10069B00072FE5087010120341E552600302075063
:1006AB00120E72020E9AE5086403700C120D1E12E4
:1006BB000E86120D9602074DE508640D700B120D98
:1006CB001E120E86120DAC8079E5086408700B12B1
:1006DB000D1E120E86120E1A8068E5086412700B3E
:1006EB00120D1E120E86120DC28057E5086417708C
:1006FB000B120D1E120E86120DD88046E508641CD7
:10070B00700B120D1E120E86120D808035E50864DB
:10071B0021700B120D1E120E86120D6A8024E50835
:10072B006426700D120D1E120E86D280120E0480DE
:10073B0011E508642B700E120D1E120E86D280125C
:06074B000DEEE4F5522260
:100CB100120ECE120BCA7F02120B56120EE8120E42
:100CC100AE7BFF7A06792B12000E7D807C257F0C8E
:090CD1001208D543CF01D2AF2275
:100A910043CF10120D53D2807B007A007909120BDB
:100AA100FAEC4D4E4F601A7B007A0079097F287E5F
:100AB100007D007C00120D02AB257D557FFF120CDD
:100AC1002AD3E523941EE52294004006120E7212E9
:030AD1000E9A2258
:03000B00020940A7
:10094000C0E0C0F0C083C082C0D075D000C000C07D
:1009500001C002C003C004C005C006C007758AF408
:10096000758CE8120D39E51F60080521E52170023C
:100970000520D3E52194E8E5209403400E7520007E
:100980007521000523E52370020522D007D006D08B
:1009900005D004D003D002D001D000D0D0D082D076
:0609A00083D0F0D0E0322C
:03001B0002001AC6
:01001A0032B3
:03002B00020028A8
:03002800C2CF3212
:03003B000209FCBB
:1009FC00C0E0C0F0C083C082C0D075D000C000C0C1
:100A0C0001C002C003C004C005C006C007E59D308C
:100A1C00E106539DFD755801E59D30E009539DFE9F
:100A2C007553011209A6D007D006D005D004D00307
:100A3C00D002D001D000D0D0D082D083D0F0D0E082
:010A4C003277
:100CDA00EFFD7C00D394027480948040037F01224C
:100CEA00ED4C7002FF22EF6401700A439A01539B94
:080CFA00FEC280FF227F0122EF
:070EE10012003EFF020CDAD3
:020B56008F3CD2
:100B5800D3EF94027480948040037F0122E4F55D12
:100B6800E55DC3953C5016745E255DF8A65D745E20
:100B7800255DF9E4FAFB120EE1055D80E3E55D65AC
:080B88003C60037F01227F00A5
:010B90002242
:100BCA00758E07438901758AF4758CE8C28CD2A99F
:100BDA00D28C438920758B60758D60C28ED2ABD260
:100BEA008EE4F5C875CB83F5CAC2CAD2ADD2CA2281
:1008D5008F3C8C3D8D3E5391F543920A758FC075C3
:1008E5009D50AF3CE4FCFDFE7B407A42790FF81247
:1008F5000084C006C007AE3DAF3EAB07AA06E4F9CB
:10090500F8D007D006120A4D8F9EAF3CE4FCFDFEE1
:100915007B407A42790FF8120084C006C007AE3DCD
:10092500AF3EAB07AA06E4F9F8D007D006120A4D88
:0B09350078081200E48F9575A90122DC
:0A001E008F9FE55860FCE4F55822BE
:060C87008B438A448945FD
:100C8D00E4FEEEC39404748094805015AB43AA44E3
:100C9D00A9458E82758300120057FF12001E0E802B
:030CAD00E17F00E4
:010CB0002221
:060C2A008F3C8D3D8B3E66
:100C30007E007F047D007B007A00793F1201B98538
:100C40003C3F853D40853E41E53F25402541F542FD
:090C50007B007A00793F020C8759
:03003800AF9F2255
:0E0EC000E55630E706E4F5567F01227F00225A
:1009A6001200388F4AE5565480704AE55630E612F2
:1009B600AF4AEF64FB7007435680751C01227556DB
:1009C6000022E5566405700DE54AB55705435640C5
:1009D6008003E4F556744B2556F8A64A0556E54BB2
:1009E600254C254D254E254FF557E54B64A560054D
:0509F600E4F556F55781
:0109FB0022D9
:10034100120EC0EF70030204EDE54EFEE54F8E5430
:10035100F5557E007F077D007B007A00794B120105
:10036100B9E5558554F012018603D2010003DE017F
:100371000103ED010203FC0103040501040414015E
:1003810005042301060432010704410108044A015E
:10039100090453010A045C010B046A010C0478018D
:1003A1000D0486010E0494010F04A2011004B80289
:1003B1000004B0020104C8030004C0030104D00416
:1003C1000104D8040204E60A0004E20A0100000460
:1003D100EA120D1E120E72120E9A0204DEE4F524C8
:1003E100120D1E120E86120D6A0204DEE4F52412AD
:1003F1000D1E120E86120D800204DE120D1E120E4B
:10040100860204DEE4F524120D1E120E86120E1A67
:100411000204DEE4F524120D1E120E86120E3002C5
:1004210004DEE4F524120D1E120E86120E4602049D
:10043100DEE4F524120D1E120E86120E5C0204DE9D
:10044100120D1E7525130204DE120D1E75251402F0
:1004510004DE120D1E7525150204DEE4F524120DCD
:100461001E120E86120D968074E4F524120D1E12D2
:100471000E86120DAC8066E4F524120D1E120E8656
:10048100120DC28058E4F524120D1E120E86120DB3
:10049100D8804AE4F524120D1E120E86120DEE804C
:1004A1003CE4F524120D1E120E86120E04802E124B
:1004B1000D1E7525218026120D1E752522801E1206
:1004C1000D1E7525308016120D1E752531800E12F8
:1004D1000D1E7525418006120D1E752542755201AE
:0D04E10022751B0122E4F51B22E4F5252203
:100AD7000133FF6032000000000000000102030440
:100AE70005060708090A0B0C0D0E0F101112131437
:100AF70015161718191A1B1C1D1E1F202122232427
:090B070025262728292A2B2C2D74
:1007DD00E4F53DF53E7F01120868EF7005053E75A5
:1007ED003D017F02120868EF7005053E753D027FE1
:1007FD0003120868EF7005053E753D037F0412086E
:10080D0068EF7005053E753D047F05120868EF70B1
:10081D0005053E753D057F06120868EF7005053E1E
:10082D00753D067F07120868EF7005053E753D079B
:10083D007F08120868EF7005053E753D087F0912A7
:10084D000868EF7005053E753D09D3E53E940174CA
:0A085D008094804003753DFFAF3D1D
:01086700226E
:100EAE00120B91E4F52EFB7A007934FFFEFDFC0265
:020EBE000D0223
:1004EE007B007A007934120BFAEC4D4E4F70037F7D
:1004FE00FF227B007A0079347FA07E007D007C0095
:10050E00120D021207DD8F3CEFF470037FFF22E520
:10051E002E14603014606C1470030205DB2403602B
:10052E0003020625E53C7002FF22853C337B007AF0
:10053E000079267FA07E007D007C00120D02752EB4
:10054E0001020628E533653C60030206257B007A2E
:10055E00007926120BFAEC4D4E4F70030206287BE3
:10056E00007A0079267FA07E007D007C00120D02AD
:10057E00752E02E53375F005A42400F582E43400EF
:10058E00020620E533653C6012E4F52EE53375F086
:10059E0005A42401F582E4340080777B007A00798B
:1005AE0026120BFAEC4D4E4F60707B007A007926C6
:1005BE007FA07E007D007C00120D02752E03E533B8
:1005CE0075F005A42402F582E434008045E5336518
:1005DE003C6012E4F52EE53375F005A42404F58293
:1005EE00E43400802D7B007A007926120BFAEC4D54
:1005FE004E4F60267B007A0079267FA07E007D001C
:10060E007C00120D02E53375F005A42403F582E497
:0C061E003400F583E0FF22E4F52E7FFF9E
:01062A0022AD
:0C000E00EA494B60068B308A31893222AF
:100D53001204EE8F2FE5314532453060098532822A
:070D63008531831201B72264
:10086800EFFD7C0064017005A29433FF22ED640261
:100878004C7005A2A633FF22EFFD7C0064037005CF
:10088800A29533FF22ED64044C7005A2A033FF2229
:10089800EFFD7C0064057005A2A133FF22ED64061C
:1008A8004C7005A2A433FF22EFFD7C00640770059D
:1008B800A2A533FF22ED64084C7005A28133FF2204
:0D08C800EF64097005A28533FF227FFF2237
:100B910053A1FE43A20153A1FD43A20253A1EF437E
:100BA100A21053A1DF43A22053A1BF43A2405391FE
:100BB100EF4392105391DF439220539AFD439B02DE
:090BC100539ADF439B207F0122BF
:070EE8005391FE4392012229
:0A002E008F9FE55860FCE4F55822AE
:060C59008B478A4889491F
:100C5F00E4F560C3E5609407748094805017AB4748
:100C6F00AA48A949856082758300120057FF1200B8
:070C7F002E056080DE7F00FE
:010C8600224B
:080B17008F3C8D3D8A3E8B3FAF
:100B1F007E007F077D007B007A0079401201B98546
:100B2F003C40853D41E4F542E53EF543853F44E5D4
:100B3F00402541254225432544F5457546FB7B005D
:070B4F007A007940020C5905
:060B100004590000000082
:0A0ECE00E4F55CF55BF55AF55922D6
:100D3900AF5CAE5BAD5AAC59EF2401F55CE43EF50E
:0A0D49005BE43DF55AE43CF5592245
:090ED800AF5CAE5BAD5AAC5922CF
:100D02008F408E3F8D3E8C3D120ED8120128AF408F
:0C0D1200AE3FAD3EAC3D9000040201423B
:100BFA008B3D8A3E893F9000041200F8120166C3B9
:100C0A00E55C9BFBE55B9AFAE55A99F9E55998F890
:100C1A00C31200D3E440047F018001FFFEFDFC22E1
:10075D00020003E493A3F8E493A34003F68001F2AF
:10076D0008DFF48029E493A3F85407240CC8C3339D
:10077D00C4540F4420C8834004F456800146F6DF6C
:10078D00E4800B0102040810204080900AD4E47E1E
:10079D00019360BCA3FF543F30E509541FFEE49361
:1007AD00A360010ECF54C025E060A840B8E493A328
:1007BD00FAE493A3F8E493A3C8C582C8CAC583CA53
:1007CD00F0A3C8C582C8CAC583CADFE9DEE780BE0B
:010B160000DE
:10003E00BB010689828A83E0225002E722BBFE02C0
:09004E00E32289828A83E49322F3
:10005700BB010CE58229F582E5833AF583E022505E
:1000670006E92582F8E622BBFE06E92582F8E222A8
:0D007700E58229F582E5833AF583E49322C2
:10008400E88FF0A4CC8BF0A42CFCE98EF0A42CFC1B
:100094008AF0EDA42CFCEA8EF0A4CDA8F08BF0A499
:1000A4002DCC3825F0FDE98FF0A42CCD35F0FCEBF8
:1000B4008EF0A4FEA9F0EB8FF0A4CFC5F02ECD39BD
:0F00C400FEE43CFCEAA42DCE35F0FDE43CFC222A
:100A4D00C2D5E830E70FB2D5E4C39BFBE49AFAE4D4
:100A5D0099F9E498F8EC30E717B2D5120A8312022F
:100A6D0021E4C39BFBE49AFAE499F9E498F8800336
:100A7D0012022130D50DE4C39FFFE49EFEE49DFDDF
:040A8D00E49CFC22C7
:1000D300EB9FF5F0EA9E42F0E99D42F0E89C45F083
:0100E30022FA
:1000E400E86010ECA2E713FCED13FDEE13FEEF1332
:0400F400FFD8F0221F
:1000F800BB010DE58229F582E5833AF5830202BF4B
:100108005007E92582F80202B3BBFE07E92582F809
:100118000202CBE58229F582E5833AF5830202D70C
:10012800BB010789828A830203295005E9F8020383
:0A0138001DBBFE05E9F802033522A5
:10014200BB010DE58229F582E5833AF58302032995
:100152005007E92582F802031DBBFE07E92582F854
:04016200020335223D
:10016600BB010789828A830202F45005E9F802027C
:10017600E7BBFE05E9F802030089828A8302030DC4
:10018600D083D082F8E4937012740193700DA3A308
:1001960093F8740193F5828883E473740293B5F03F
:0D01A600067403936860E9A3A3A3A380D8A7
:0601B3008A838982E473D7
:1001B900EF4E6012EF60010EEDBB010B89828A835D
:1001C900F0A3DFFCDEFA2289F05007F709DFFCA96A
:0C01D900F022BBFEFCF309DFFCA9F022C1
:1001E50075F008758200EF2FFFEE33FECD33CDCCD1
:1001F50033CCC58233C5829BED9AEC99E582984054
:100205000CF582EE9BFEED9AFDEC99FC0FD5F0D630
:10021500E4CEFBE4CDFAE4CCF9A88222B800C1B95A
:100225000059BA002DEC8BF084CFCECDFCE5F0CB98
:10023500F97818EF2FFFEE33FEED33FDEC33FCEBD1
:1002450033FB10D703994004EB99FB0FD8E5E4F98C
:10025500FA227818EF2FFFEE33FEED33FDEC33FC79
:10026500C933C910D7059BE99A4007EC9BFCE99A6D
:10027500F90FD8E0E4C9FAE4CCFB2275F010EF2FB2
:10028500FFEE33FEED33FDCC33CCC833C810D707B2
:100295009BEC9AE899400AED9BFDEC9AFCE899F8ED
:0E02A5000FD5F0DAE4CDFBE4CCFAE4C8F92280
:0C02B300E6FC08E6FD08E6FE08E6FF2277
:0C02BF00E0FCA3E0FDA3E0FEA3E0FF22B2
:0C02CB00E2FC08E2FD08E2FE08E2FF226F
:1002D700E493FC740193FD740293FE740393FF226D
:0D02E700E6FB08E6F908E6FA08E6CBF82287
:0C02F400E0F8A3E0F9A3E0FAA3E0FB228D
:0D030000E2FB08E2F908E2FA08E2CBF8227D
:10030D00E493F8740193F9740293FA740393FB2246
:0C031D00ECF608EDF608EEF608EFF6220C
:0C032900ECF0A3EDF0A3EEF0A3EFF02247
:0C033500ECF208EDF208EEF208EFF22204
:00000001FF
