:03000000020CD21D
:0C0CD200787FE4F6D8FD75817C020D19D6
:080003001210A8120DE780FBAA
:10002E008F693090030202ADEF703312056AE50F4F
:10003E007029750F01F508F509F50AF50BF50CE5B4
:10004E000E450D6016750D01750E00AB0EAA0D7DD9
:10005E00FA7FA5120EEBE4F50DF50E0202E1E5694D
:10006E0064017036F50FE52D600B7B007A0A7DFA80
:10007E007FA5120EEBE50C64017004E50B640160C4
:10008E00167401F50BF50CF50D750E00AB0CAA0BE5
:10009E007DFA7FA5120EEB020362E56964067036E7
:1000AE00F50FE52D600B7B007A0A7DFA7FA5120E07
:1000BE00EBE50C64017004E50B640160167401F548
:1000CE000BF50CF50D750E00AB0CAA0B7DFA7FA58A
:1000DE00120EEB020322E569640B7036F50FE52D67
:1000EE00600B7B007A0A7DFA7FA5120EEBE50C649D
:1000FE00017004E50B640160167401F50BF50CF547
:10010E000D750E00AB0CAA0B7DFA7FA5120EEB023D
:10011E0003E2E56964107036F50FE52D600B7B0088
:10012E007A0A7DFA7FA5120EEBE50C64017004E5E8
:10013E000B640160167401F50BF50CF50D750E00D0
:10014E00AB0CAA0B7DFA7FA5120EEB0203A2E5699A
:10015E0064187038F50FF531E52D600B7B007A0AC7
:10016E007DFA7FA5120EEBE50C64017004E50B64BD
:10017E000160167401F50BF50CF50D750E00AB0C48
:10018E00AA0B7DFA7FA5120EEB020424E569641A10
:10019E007045E52D600B7B007A0A7DFA7FA5120E65
:1001AE00EBE4F53AE5106003020569750F01751071
:1001BE00010512E5127002051130E012E4F516F594
:1001CE0017F514F515751301750841D29722E4F54C
:1001DE0013750842C29722E569641F704DE52D60C4
:1001EE000B7B007A0A7DFA7FA5120EEBE4F53AE559
:1001FE003B6003020569750F01753B01053DE53D49
:10020E007002053C30E012E4F53FF540F541F54251
:10021E00753E01750830D2A322E4F53FF540F54155
:10022E00F542F53E750831C2A322E56964166003F6
:10023E00020569E52D600B7B007A0A7DFA7FA51217
:10024E000EEB0531753201E531640260030205697A
:10025E00F531F532F533F534750F01753501F53697
:10026E00F537E53945386010E50A7004E509640391
:10027E007003020569020516E53A7013753A01E539
:10028E000A7004E50964037003020569020546E578
:10029E000A7004E50964027003020569020555E55A
:1002AE0069703812056AE50F7029750F01F508F5AA
:1002BE0009F50AF50BF50CE50E450D6016750D01E9
:1002CE00750E00AB0EAA0D7DFA7FA5120EEBE4F5AE
:1002DE000DF50EE4F510F52EF53B22E5696401707F
:1002EE003AF50FE52D600B7B007A0A7DFA7FA51299
:1002FE000EEBE50C64017004E50B640160167401ED
:10030E00F50BF50CF50D750E00AB0CAA0B7DFA7FF7
:10031E00A5120EEBE4F53A75080222E56964067043
:10032E003AF50FE52D600B7B007A0A7DFA7FA51258
:10033E000EEBE50C64017004E50B640160167401AC
:10034E00F50BF50CF50D750E00AB0CAA0B7DFA7FB7
:10035E00A5120EEBE4F53A75080322E569640B70FD
:10036E003AF50FE52D600B7B007A0A7DFA7FA51218
:10037E000EEBE50C64017004E50B6401601674016C
:10038E00F50BF50CF50D750E00AB0CAA0B7DFA7F77
:10039E00A5120EEBE4F53A75080122E569641070BA
:1003AE003AF50FE52D600B7B007A0A7DFA7FA512D8
:1003BE000EEBE50C64017004E50B6401601674012C
:1003CE00F50BF50CF50D750E00AB0CAA0B7DFA7F37
:1003DE00A5120EEBE4F53A75080422E5696418706F
:1003EE003CF50FF531E52D600B7B007A0A7DFA7F27
:1003FE00A5120EEBE50C64017004E50B64016016AA
:10040E007401F50BF50CF50D750E00AB0CAA0B7DFA
:10041E00FA7FA5120EEBE4F53A75082022E5696421
:10042E001A704DE52D600B7B007A0A7DFA7FA512BE
:10043E000EEBE4F53AE53B6003020569750F0175B5
:10044E003B01053DE53D7002053C30E012E4F53F11
:10045E00F540F541F542753E01750830D29722E41C
:10046E00F53FF540F541F542F53E750831C297224C
:10047E00E569641F704DE52D600B7B007A0A7DFAED
:10048E007FA5120EEBE4F53AE510600302056975DF
:10049E000F017510010512E5127002051130E01200
:1004AE00E4F516F517F514F515751301750841D217
:1004BE00A322E4F516F517F514F515F51375084294
:1004CE00C2A322E56964166003020569E52D600B7F
:1004DE007B007A0A7DFA7FA5120EEB05317532018B
:1004EE00E53164027075F531F532F533F534750F7B
:1004FE0001753501F536F537E53945386029E50AD8
:10050E007004E50964036053750903750A00AB0AAC
:10051E00AA097DFA7FA5120EEBE4F50FF535F53637
:10052E00F537F538F53922E53A7012753A01E50AD4
:10053E007004E50964036023750903800DE50A70F4
:10054E0004E50964026014750902750A00AB0AAA73
:0C055E00097DFA7FA5120EEBE4F50F22D8
:1010A80012119D120F661210E712000E1211B012E3
:1010B80011507BFF7A00792E12117D43CF40D2AFB9
:0110C8002205
:100DE70043CF401211397B007A007918120F99EC22
:100DF7004D4E4F60207B007A0079187F287E007D5A
:100E0700007C00121103E50A45097009AB087D55FE
:100E17007FFF120FC9AE29AF2AE4FCFD7B607AEA97
:100E2700F9F8C3120896501DE4F529F52AF528F5B7
:100E37002BE52C600DE4F52CFB7A017DFA7FA512DA
:060E47000EEBE4F50822A9
:03000B00020A38AE
:100A3800C0E0C0F0C083C082C0D075D000C000C084
:100A480001C002C003C004C005C006C007758A9073
:100A5800758CE812111FE532603C0534E534AE337D
:100A68007002053314D394BCEE9402402975330008
:100A7800753400753200753100E52E7019750F0157
:100A8800752E010530E5307002052F30E005750838
:100A9800218003750822E5286008052AE52A7002E6
:100AA8000529E535602A0537E537AE367002053683
:100AB80014FFE4FCFD7B407A9CF9F8C312089650B9
:100AC8000F753500753600753700753800753901B2
:100AD800E51360080517E51770020516D3E51794A6
:100AE800D0E5169407400E7516007517000515E534
:100AF8001570020514D3E5159408E51494074021F0
:100B080075160075170075140075150075130075B6
:100B18000842751100751200209004C2978002C225
:100B2800A3E53E60080540E5407002053FD3E54077
:100B380094D0E53F9407400E753F0075400005428C
:100B4800E54270020541D3E5429408E54194074027
:100B580021753F00754000754100754200753E00E3
:100B6800750831753C00753D00209004C2A38002D1
:100B7800C297D007D006D005D004D003D002D00148
:0D0B8800D000D0D0D082D083D0F0D0E032A9
:03001B00020021BF
:0100210032AC
:03002B0002001EB2
:03001E00C2CF321C
:0D000E0043918153927E43A10853A2F72233
:100F6600758E07438901758A90758CE8C28CD2A963
:100F7600D28C438920758B10758D10C28ED2ABD260
:100F86008EE4F5C9F5C875CB4475CA80C2CAD2AD20
:030F9600D2CA229A
:1010E70075985043878053C8CF438E0253890F4367
:0C10F7008920758DB2C28ED28ED2AC2240
:0A1189008F99E56460FCE4F5642230
:060FF8008B728A738974FC
:100FFE00E4F559C3E5599404748094805017AB728C
:10100E00AA73A974855982758300120869FF12119B
:07101E0089055980DE7F0007
:0110250022A8
:060FC9008F6B8D6C8B6D37
:100FCF007E007F047D007B007A00796E12097E859A
:100FDF006B6E856C6F856D70E56E256F2570F57185
:090FEF007B007A00796E020FF814
:0C117000E56860FCE4F56885995AAF5A08
:01117C002250
:0E116200E56630E7067566007F01227F0022F9
:100EA2001211708F65E5665480703DE56630E60983
:100EB200EF64FB703043668022E5666405700BE5E3
:100EC20065B5670443664022801B745B2566F8A6FD
:100ED200650566E55B255C255D255E255FF567E5B5
:090EE2005B64A560037566002243
:1010C900E4F508F56AC3E56A940A74809480500DC2
:0D10D900AB087D557FFF120FC9056A80E846
:0110E60022E7
:10056A00121162EF7003020868E55EFEE55F8E62B3
:10057A00F5637E007F077D007B007A00795B1209B4
:10058A007EE5638562F012094B05F7010006110149
:10059A00010637010206E70104070A0105072D01D2
:1005AA0006075001070773010807790109077F0148
:1005BA000A065D010B067F010C06A1010D06C401A6
:1005CA000E081D011108430112078B02000785025C
:1005DA000107F1030007D003010791040107B204E0
:1005EA000208190A00080F0A0100000868E52C60D1
:1005FA000DE4F52CFB7A017DFA7FA5120EEBE4F5EA
:10060A0008750F01F52B22750F01752801E4F529EC
:10061A00F52AE52B7010752B01752C0104FBFA7D68
:10062A00FA7FA5120EEB1210C975080422750F0184
:10063A00752801E4F529F52AE52B7010752B01754B
:10064A002C0104FBFA7DFA7FA5120EEB1210C97574
:10065A00080122750F01752801E4F529F52AE52B11
:10066A007010752B01752C0104FBFA7DFA7FA51217
:10067A000EEB02083F750F01752801E4F529F52AEA
:10068A00E52B7010752B01752C0104FBFA7DFA7F9E
:10069A00A5120EEB020865750F01752801E4F5290C
:1006AA00F52AE52B7010752B01752C0104FBFA7DD8
:1006BA00FA7FA5120EEB75080622750F017528013F
:1006CA00E4F529F52AE52B7010752B01752C010428
:1006DA00FBFA7DFA7FA5120EEB75080722750F014A
:1006EA00752801E4F529F52AE52B7010752B01759B
:1006FA002C0104FBFA7DFA7FA5120EEB7508202265
:10070A00750F01752801E4F529F52AE52B70107596
:10071A002B01752C0104FBFA7DFA7FA5120EEB75ED
:10072A00080522750F01752801E4F529F52AE52B3C
:10073A007010752B01752C0104FBFA7DFA7FA51246
:10074A000EEB75080822750F01752801E4F529F5E5
:10075A002AE52B7010752B01752C0104FBFA7DFA22
:10076A007FA5120EEB75080A227508130208157583
:10077A0008140208157508150208157508210208DB
:10078A0015750822020815750F01751100751201F9
:10079A00E4F516F517F514F51575130175084120DA
:1007AA009003D29722D2A322750F01E4F511F51214
:1007BA00F516F517F514F515F5137508422090038B
:1007CA00C29722C2A322750F01753C00753D01E450
:1007DA00F53FF540F541F542753E01750830209028
:1007EA0003D2A322D29722750F01E4F53CF53DF519
:1007FA003FF540F541F542F53E750831209003C2B8
:10080A00A322C29722752D01750820750F0122E4D3
:10081A00F52D22750F01752801E4F529F52AE52B36
:10082A007010752B01752C0104FBFA7DFA7FA51255
:10083A000EEB1210C975080222750F01752801E422
:10084A00F529F52AE52B7010752B01752C0104FB8F
:0F085A00FA7DFA7FA5120EEB1210C97508032262
:0300230002108147
:10108100C0E0C0D075D000C000C007309905C2993A
:10109100756401309808C298756801120EA2D007D4
:0710A100D000D0D0D0E032F6
:100F2B000150FF602D0000000000000001020304CF
:100F3B0005060708090A0B0C0D0E0F1011121314DE
:100F4B0015161718191A1B1C1D1E1F2021222324CE
:040F5B0025262728F8
:100D5E00E4F56AF56B7F01120E4DEF70107F0212F3
:100D6E000E4DEF7008056B756A08AF6A227F01128F
:100D7E000E4DEF7005056B756A017F02120E4DEF79
:100D8E007005056B756A027F03120E4DEF70050537
:100D9E006B756A037F04120E4DEF7005056B756A55
:100DAE00047F05120E4DEF7005056B756A057F0603
:100DBE00120E4DEF7005056B756A067F07120E4D0C
:100DCE00EF7005056B756A07D3E56B94017480941B
:080DDE00804003756AFFAF6A53
:010DE60022EA
:10115000121054E4F54BFB7A007951FFFEFDFC02BE
:02116000110379
:100B95007B007A007951120F99EC4D4E4F70037F0F
:100BA500FF227B007A0079517F147E007D007C0056
:100BB500121103120D5E8F69EFF470037FFF22E5BA
:100BC5004B14603014606C147003020C82240360B3
:100BD50003020CCCE5697002FF228569507B007A1F
:100BE5000079437F147E007D007C00121103754B54
:100BF50001020CCFE55065696003020CCC7B007ADD
:100C0500007943120F99EC4D4E4F7003020CCF7BC8
:100C1500007A0079437F907E017D007C00121103EC
:100C2500754B02E55075F005A42400F582E4340007
:100C3500020CC7E55065696012E4F54BE55075F0A7
:100C450005A42401F582E4340080777B007A0079DD
:100C550043120F99EC4D4E4F60707B007A0079433B
:100C65007F207E037D007C00121103754B03E55048
:100C750075F005A42402F582E434008045E550654D
:100C8500696012E4F54BE55075F005A42404F5827E
:100C9500E43400802D7B007A007943120F99EC4DE6
:100CA5004E4F60267B007A0079437F207E037D00CE
:100CB5007C00121103E55075F005A42403F582E4C8
:0C0CC5003400F583E0FF22E4F54B7FFFD4
:010CD1002200
:0C117D00EA494B60068B4D8A4E894F22D8
:10113900120B958F4CE54E454F454D6009854F8201
:07114900854E8312097C2290
:100E4D00EFFD7C0064017005A28033FF22ED64028A
:100E5D004C7005A2A133FF22EFFD7C0064037005E9
:100E6D00A28333FF22ED64044C7005A28233FF226E
:100E7D00EFFD7C0064057005A2A033FF22ED640632
:100E8D004C7005A28133FF22EF64077005A2A233D7
:050E9D00FF227FFF228F
:10105400539AFE439B01539AFD439B02539AFB43CD
:101064009B04539AF7439B0853A1FE43A20153A147
:0D107400FD43A20253A1FB43A2047F012211
:0711B0005391FE439201225E
:0A1193008F99E56460FCE4F5642226
:061026008B758A768977C4
:10102C00E4F57CC3E57C9407748094805017AB7511
:10103C00AA76A977857C82758300120869FF121144
:07104C0093057C80DE7F00AC
:01105300227A
:080EEB008F6A8D6B8A6C8B6D20
:100EF3007E007F077D007B007A00796E12097E8574
:100F03006A6E856B6FE4F570E56CF571E56DF572EE
:100F1300E56E256F257025712572F5737574FB7B5E
:080F2300007A00796E0210262D
:060F5F0004780000000010
:0A119D00E4F57BF57AF579F5782288
:10111F00AF7BAE7AAD79AC78EF2401F57BE43EF589
:0A112F007AE43DF579E43CF57822FE
:0911A700AF7BAE7AAD79AC782281
:101103008F6D8E6C8D6B8C6A1211A71208EDAF6D0B
:0C111300AE6CAD6BAC6A900004020907E2
:100F99008B6A8A6B896C9000041208BD12092BC3F5
:100FA900E57B9BFBE57A9AFAE57999F9E57898F872
:100FB900C31208ACE440047F018001FFFEFDFC225E
:100CDE00020003E493A3F8E493A34003F68001F229
:100CEE0008DFF48029E493A3F85407240CC8C33317
:100CFE00C4540F4420C8834004F456800146F6DFE6
:100D0E00E4800B0102040810204080900F2BE47E3B
:100D1E00019360BCA3FF543F30E509541FFEE493DA
:100D2E00A360010ECF54C025E060A840B8E493A3A1
:100D3E00FAE493A3F8E493A3C8C582C8CAC583CACC
:100D4E00F0A3C8C582C8CAC583CADFE9DEE780BE84
:010F6500008B
:10086900BB010CE58229F582E5833AF583E0225044
:1008790006E92582F8E622BBFE06E92582F8E2228E
:0D088900E58229F582E5833AF583E49322A8
:10089600EB9FF5F0EA9E42F0E99D42F0EC6480C8D9
:0608A60064809845F02279
:1008AC00EB9FF5F0EA9E42F0E99D42F0E89C45F0A2
:0108BC002219
:1008BD00BB010DE58229F582E5833AF5830209B680
:1008CD005007E92582F80209AABBFE07E92582F83F
:1008DD000209C2E58229F582E5833AF5830209CE44
:1008ED00BB010789828A83020A205005E9F8020AB2
:0A08FD0014BBFE05E9F8020A2C22E4
:10090700BB010DE58229F582E5833AF583020A20CA
:100917005007E92582F8020A14BBFE07E92582F889
:04092700020A2C2272
:10092B00BB010789828A830209EB5005E9F80209AA
:10093B00DEBBFE05E9F80209F789828A83020A0405
:10094B00D083D082F8E4937012740193700DA3A33B
:10095B0093F8740193F5828883E473740293B5F072
:0D096B00067403936860E9A3A3A3A380D8DA
:060978008A838982E4730A
:10097E00EF4E6012EF60010EEDBB010B89828A8390
:10098E00F0A3DFFCDEFA2289F05007F709DFFCA99D
:0C099E00F022BBFEFCF309DFFCA9F022F4
:0C09AA00E6FC08E6FD08E6FE08E6FF2279
:0C09B600E0FCA3E0FDA3E0FEA3E0FF22B4
:0C09C200E2FC08E2FD08E2FE08E2FF2271
:1009CE00E493FC740193FD740293FE740393FF226F
:0D09DE00E6FB08E6F908E6FA08E6CBF82289
:0C09EB00E0F8A3E0F9A3E0FAA3E0FB228F
:0D09F700E2FB08E2F908E2FA08E2CBF82280
:100A0400E493F8740193F9740293FA740393FB2248
:0C0A1400ECF608EDF608EEF608EFF6220E
:0C0A2000ECF0A3EDF0A3EEF0A3EFF02249
:0C0A2C00ECF208EDF208EEF208EFF22206
:00000001FF
