:030000000208DE15
:0C08DE00787FE4F6D8FD75816C020925D6
:08000300120BAA120B2680FB70
:03002800AF9F2265
:0E0C0500E50830E706E4F5087F01227F0022B3
:10096A001200287548008F49E50854807046E5084A
:10097A0030E60CE54964FB4548703643088022E5B9
:10098A000864057011E551B54909E4B548054308FD
:10099A00408003E4F508742D2508F8A6490508E502
:1009AA002D252E252F25302531F551E52D64A560FD
:0509BA0003E4F5082232
:10003E00E526B40700400302032890004FF8282855
:10004E00730200640200BF02011A0201750201D0A0
:10005E0002022B02028620A454E51F7010751F01A8
:10006E00FB7A0079097F0AFEFDFC120BCF7B007A2A
:10007E00007909120AC7EC4D4E4F603120A42EE4D0
:10008E00F51CF529F553F51EF528F559754B01F5B7
:10009E001BF557F55DF55CF547F558F54AF550F546
:1000AE0046F519F527F51DF52CF552F55675260171
:1000BE002220A154E51F7010751F01FB7A007909EB
:1000CE007F0AFEFDFC120BCF7B007A007909120A23
:1000DE00C7EC4D4E4F603120A12EE4F51CF529756D
:1000EE005301F51EF528F559F54BF51BF557F55D42
:1000FE00F55CF547F558F54AF550F546F519F5272F
:10010E00F51DF52CF552F5567526022220A054E564
:10011E001F7010751F01FB7A0079097F0AFEFDFC26
:10012E00120BCF7B007A007909120AC7EC4D4E4FA5
:10013E00603120A02EE4F51CF529F553751E01F54E
:10014E0028F559F54BF51BF557F55DF55CF547F5BB
:10015E0058F54AF550F546F519F527F51DF52CF528
:10016E0052F5567526032220A654E51F7010751FF2
:10017E0001FB7A0079097F0AFEFDFC120BCF7B0092
:10018E007A007909120AC7EC4D4E4F603120A62E27
:10019E00E4F51C752901F553F51EF528F559F54BB7
:1001AE00F51BF557F55DF55CF547F558F54AF55035
:1001BE00F546F519F527F51DF52CF552F55675266C
:1001CE000422209554E51F7010751F01FB7A0079EB
:1001DE00097F0AFEFDFC120BCF7B007A0079091213
:1001EE000AC7EC4D4E4F603120952EE4F51CF529D3
:1001FE00F553F51E752801F559F54BF51BF557F519
:10020E005DF55CF547F558F54AF550F546F519F5E7
:10021E0027F51DF52CF552F556752605222094541A
:10022E00E51F7010751F01FB7A0079097F0AFEFD2C
:10023E00FC120BCF7B007A007909120AC7EC4D4EE7
:10024E004F603120942EE4F51CF529F553F51EF57B
:10025E0028755901F54BF51BF557F55DF55CF5471E
:10026E00F558F54AF550F546F519F527F51DF52C17
:10027E00F552F5567526062220A554E51F70107509
:10028E001F01FB7A0079097F0AFEFDFC120BCF7B62
:10029E00007A007909120AC7EC4D4E4F603120A545
:1002AE002EE4F51CF529F553F51EF528F559F54BF9
:1002BE00751B01F557F55DF55CF547F558F54AF5F3
:1002CE0050F546F519F527F51DF52CF552F5563076
:1002DE00A44830A14530A04230A63F30953C309422
:1002EE003930A536E51C7032751C01F51FF529F560
:1002FE0053F51EF528F559F54BF51B755701F55DB0
:10030E00F55CF547F558F54AF550F546F519F5271C
:0E031E00F51DF52CF552F5568000E4F526226B
:10082C00E52960057B200208D6E55360057B0602AE
:10083C0008D6E51E60057B070208D6E52860057B17
:10084C00020208D6E55960047B03807EE54B600408
:10085C007B048076E51B60047B01806EE5576004A9
:10086C00E4FB8066E55D60047B21805EE55C6004F2
:10087C007B438056E54760047B22804EE55860043C
:10088C007B308046E54A60047B31803EE550600455
:10089C007B418036E54660047B42802EE51960047E
:1008AC007B058026E52760047B13801EE51D600414
:1008BC007B088016E52C60047B14800EE5526004E6
:1008CC007B0A8006E55660097B157D557FFF120A71
:0208DC00F72201
:10061600120C05EF700302082BE530FEE5318E441F
:10062600F5457E007F077D007B007A00792D120458
:100636008EE5458544F012045B06830100068601BB
:10064600010696010206A8010407050105072A010D
:1006560006075301070780010807A8010907D20109
:100666000A06BA010B06CC010C06DE010D06F001E6
:100676000E082B0200082B0201000007FF0207FFED
:10068600E4F529F553F51EF528F559754B0180203B
:10069600E4F529F553F51EF528F559F54B751B01BB
:1006A6008058752901E4F553F51EF528F559F54BE3
:1006B600F51B8046E4F529F553F51E752801F55915
:1006C600F54BF51B8034E4F529F553F51EF5287531
:1006D6005901F54BF51B8022E4F529755301F51EEA
:1006E600F528F559F54BF51B8010E4F529F55375FA
:1006F6001E01F528F559F54BF51BF557020811E4CF
:10070600F529F553F51EF528F559F54BF51BF55763
:10071600F55DF55CF547F558F54AF550F54675195A
:1007260001020821E4F529F553F51EF528F559F5DA
:100736004BF51BF557F55DF55CF547F558F54AF5AC
:1007460050F546F519F527751D01020825E4F5292A
:10075600F553F51EF528F559F54BF51BF557F55DDF
:10076600F55CF547F558F54AF550F546F519F527C0
:10077600F51DF52C755201F55622E4F529F553F5CC
:100786001EF528F559F54BF51BF557F55DF55CF5A6
:1007960047F558F54AF550F546F519752701F51D43
:1007A600807DE4F529F553F51EF528F559F54BF549
:1007B6001BF557F55DF55CF547F558F54AF550F527
:1007C60046F519F527F51D752C018055E4F529F533
:1007D60053F51EF528F559F54BF51BF557F55DF55F
:1007E6005CF547F558F54AF550F546F519F527F540
:1007F6001DF52CF55275560122E4F529F553F51E23
:10080600F528F559F54BF51B755701F55DF55CF5C2
:1008160047F558F54AF550F546F519F527F51DF54E
:060826002CF552F55622EC
:100BAA0012002E7BFF7A00790E120C3B120C1312E4
:100BBA000A977BFF7A0979BF7F0C7E00120C2512F7
:050BCA000C33020C3E9B
:100B2600120C3712061612003E7B007A0079341238
:100B36000AC7EC4D4E4F60147B007A0079347F284B
:0D0B46007E007D007C00120BCF12082C22D7
:03000B00020A5690
:100A5600C0E0C0F0C083C082C0D075D000C000C066
:100A660001C002C003C004C005C006C007758AF4F1
:100A7600758CE8120BEBD007D006D005D004D00356
:100A8600D002D001D000D0D0D082D083D0F0D0E038
:010A9600322D
:03001B00020C4193
:010C41003280
:03002B0002003898
:03003800C2CF3202
:03003B00020B5362
:100B5300C0E0C0D075D000C000C007E59D30E106FD
:100B6300539DFD755401E59D30E009539DFE751AB3
:0D0B73000112096AD007D000D0D0D0E032C6
:0D000E005391CF43923053A18C43A2732233
:030C3B0002048828
:090C1300439A01539BFED280229A
:040C330075CF102247
:040C370075CF102243
:030C3E00D2AF2210
:100A9700758E07438901758AF4758CE8C28CD2A9D3
:100AA700D28C438920758B60758D60C28ED2ABD294
:100AB7008EE4F5C875CB83F5CAC2CAD2ADD2CA22B5
:1009BF008E5F8F605391F543920A758FC0759D506E
:1009CF00AE5FAF60E4FCFD7B407A42790FF8120313
:1009DF0059E47B807A25F9F8120A128F9EAE5FAF29
:1009EF0060E4FCFD7B407A42790FF8120359E47BF7
:1009FF00807A25F9F8120A1278081203B98F9575C3
:030A0F00A9012218
:070C250089828A8302048C1E
:0A001E008F9FE55460FCE4F55422C6
:060B80008B668A6789689C
:100B8600E4FEEEC39404748094805015AB66AA67A5
:100B9600A9688E8275830012032CFF12001E0E8038
:030BA600E17F01EB
:010BA9002229
:060AF7008F5F8D608B6132
:100AFD007E007F047D007B007A00796212048E8572
:100B0D005F62856063856164E56225632564F565D3
:090B1D007B007A007962020B8072
:060C2C0004690000000055
:0A002E00E4F56CF56BF56AF5692244
:100BEB00AF6CAE6BAD6AAC69EF2401F56CE43EF50E
:0A0BFB006BE43DF56AE43CF5692265
:090C1C00AF6CAE6BAD6AAC69224D
:100BCF008F628E618D608C5F120C1C1203FDAF6201
:0C0BDF00AE61AD60AC5F90000402041732
:100AC7008B5F8A6089619000041203CD12043BC3D7
:100AD700E56C9BFBE56B9AFAE56A99F9E56998F885
:100AE700C31203A8E440047F018001FFFEFDFC223E
:1008EA00020003E493A3F8E493A34003F68001F221
:1008FA0008DFF48029E493A3F85407240CC8C3330F
:10090A00C4540F4420C8834004F456800146F6DFDD
:10091A00E4800B0102040810204080900C2CE47E35
:10092A00019360BCA3FF543F30E509541FFEE493D2
:10093A00A360010ECF54C025E060A840B8E493A399
:10094A00FAE493A3F8E493A3C8C582C8CAC583CAC4
:10095A00F0A3C8C582C8CAC583CADFE9DEE780BE7C
:010C320000C1
:10032C00BB010CE58229F582E5833AF583E0225086
:10033C0006E92582F8E622BBFE06E92582F8E222D0
:0D034C00E58229F582E5833AF583E49322EA
:10035900E88FF0A4CC8BF0A42CFCE98EF0A42CFC43
:100369008AF0EDA42CFCEA8EF0A4CDA8F08BF0A4C1
:100379002DCC3825F0FDE98FF0A42CCD35F0FCEB20
:100389008EF0A4FEA9F0EB8FF0A4CFC5F02ECD39E5
:0F039900FEE43CFCEAA42DCE35F0FDE43CFC2252
:100A1200C2D5E830E70FB2D5E4C39BFBE49AFAE40F
:100A220099F9E498F8EC30E717B2D5120A481204A3
:100A3200F6E4C39BFBE49AFAE499F9E498F880039C
:100A42001204F630D50DE4C39FFFE49EFEE49DFD43
:040A5200E49CFC2202
:1003A800EB9FF5F0EA9E42F0E99D42F0E89C45F0AB
:0103B8002222
:1003B900E86010ECA2E713FCED13FDEE13FEEF135A
:0403C900FFD8F02247
:1003CD00BB010DE58229F582E5833AF5830205949B
:1003DD005007E92582F8020588BBFE07E92582F85A
:1003ED000205A0E58229F582E5833AF5830205AC85
:1003FD00BB010789828A830205FE5005E9F80205D3
:0A040D00F2BBFE05E9F802060A2220
:10041700BB010DE58229F582E5833AF5830205FEE6
:100427005007E92582F80205F2BBFE07E92582F8A5
:0404370002060A228D
:10043B00BB010789828A830205C95005E9F80205C9
:10044B00BCBBFE05E9F80205D589828A830205E269
:10045B00D083D082F8E4937012740193700DA3A330
:10046B0093F8740193F5828883E473740293B5F067
:0D047B00067403936860E9A3A3A3A380D8CF
:060488008A838982E473FF
:10048E00EF4E6012EF60010EEDBB010B89828A8385
:10049E00F0A3DFFCDEFA2289F05007F709DFFCA992
:0C04AE00F022BBFEFCF309DFFCA9F022E9
:1004BA0075F008758200EF2FFFEE33FECD33CDCCF9
:1004CA0033CCC58233C5829BED9AEC99E58298407C
:1004DA000CF582EE9BFEED9AFDEC99FC0FD5F0D659
:1004EA00E4CEFBE4CDFAE4CCF9A88222B800C1B983
:1004FA000059BA002DEC8BF084CFCECDFCE5F0CBC1
:10050A00F97818EF2FFFEE33FEED33FDEC33FCEBF9
:10051A0033FB10D703994004EB99FB0FD8E5E4F9B4
:10052A00FA227818EF2FFFEE33FEED33FDEC33FCA1
:10053A00C933C910D7059BE99A4007EC9BFCE99A95
:10054A00F90FD8E0E4C9FAE4CCFB2275F010EF2FDA
:10055A00FFEE33FEED33FDCC33CCC833C810D707DA
:10056A009BEC9AE899400AED9BFDEC9AFCE899F815
:0E057A000FD5F0DAE4CDFBE4CCFAE4C8F922A8
:0C058800E6FC08E6FD08E6FE08E6FF229F
:0C059400E0FCA3E0FDA3E0FEA3E0FF22DA
:0C05A000E2FC08E2FD08E2FE08E2FF2297
:1005AC00E493FC740193FD740293FE740393FF2295
:0D05BC00E6FB08E6F908E6FA08E6CBF822AF
:0C05C900E0F8A3E0F9A3E0FAA3E0FB22B5
:0D05D500E2FB08E2F908E2FA08E2CBF822A6
:1005E200E493F8740193F9740293FA740393FB226F
:0C05F200ECF608EDF608EEF608EFF62235
:0C05FE00ECF0A3EDF0A3EEF0A3EFF02270
:0C060A00ECF208EDF208EEF208EFF2222C
:00000001FF
