:03000000020C6E81
:100C6E0078FFE4F6D8FD9000007F007E04E4F0A348
:0A0C7E00DFFCDEFA758150020CC3A2
:100FB500013200012C0001210002450000013A0028
:0C0FC500014700012600012700012B005D
:08000300C2998F993099FD228A
:1003FB00120F1E1210D6121046120E0CD2AF751C15
:10040B000F43CF10900071E030E711547FF01206CC
:10041B00838F3E8E3D8D3C8C3B12112AE4FFFEFDFB
:10042B00FCAB3EAA3DA93CA83BC3120A7470030265
:10043B00064C7836120AABE47B02FAF9F8C3120ABF
:10044B00744003020654E4F539F538F537F5368573
:10045B003E31853D30853C2F853B2E7F08FEFDFCD4
:10046B00AB31AA30A92FA82EC3120A747025E5321E
:10047B007003020654E4F532AF1CFEEF640F7005F7
:10048B00751C648009EF64644E7003751C0F7F113B
:10049B00020651E47F10FEFDFCAB31AA30A92FA858
:1004AB002EC3120A747040E5327003020654E4F551
:1004BB0032E52170197521015380F9438002F53F14
:1004CB00F540F541F542753501F528020654E4F582
:1004DB00215380F9438004F53FF540F541F542F592
:1004EB0035752801020654E47F20FEFDFCAB31AAD2
:1004FB0030A92FA82EC3120A74700FE532700302B5
:10050B000654E4F5327F17020651E4FF7E40FDFCF2
:10051B00AB31AA30A92FA82EC3120A747028E5326A
:10052B007003020654E4F532E52A700A752A01D2EB
:10053B00A57529018007E4F52AC2A5F529F533F540
:10054B00347F20020651E4FF7E80FDFCAB31AA30E4
:10055B00A92FA82EC3120A747027F543F544E53270
:10056B007003020654E4F532632CFFE52C6006752C
:10057B002D01E48003E4F52DF543F5447F210206BC
:10058B0051E4FF7E01FDFCAB31AA30A92FA82EC38D
:10059B00120A74700FE5327003020654E4F5327FD1
:1005AB0001020651E4FF7E02FDFCAB31AA30A92FFC
:1005BB00A82EC3120A74700FE5327003020654E4BE
:1005CB00F5327F12020651E4FFFE7D04FCAB31AA2B
:1005DB0030A92FA82EC3120A74700BE532606AE49F
:1005EB00F5327F168060E4FFFE7D08FCAB31AA304C
:1005FB00A92FA82EC3120A74700BE532604BE4F5D9
:10060B00327F028041E4FF7E10FDFCAB31AA30A9A2
:10061B002FA82EC3120A74700BE532602CE4F5324E
:10062B007F098022E4FF7E20FDFCAB31AA30A92F8D
:10063B00A82EC3120A747011E532600DE4F53280F6
:10064B00087532017F55120003E5276013E4F52787
:10065B00F533F534C2A5F52A7F2012000302040CF2
:10066B00E52B700302040CE4F52BF543F544F52C54
:08067B007F2112000302040CB0
:03000B00020AD70F
:100AD700C0E0C0D075D000C006758AA3758CFD052F
:100AE7001BD3E51B9464748094804003751B00E559
:100AF7001BC3951C4004C2808002D280E53560206C
:100B07000540E5407002053FD39470E53F941740D8
:100B17000F753F007540007535007528015380F942
:100B2700E52860200542E54270020541D39470E54F
:100B3700419417400F7541007542007535017528BE
:100B4700005380F9051FE51FAE1E7002051E14D362
:100B57009422EE9429404E751E00751F00E52D6006
:100B67001F0544E544AE437002054314D39408EED1
:100B77009407400C754300754400752D00752B01D3
:100B8700E52960210534E534AE337002053314D30B
:100B97009410EE940E400E753300753400752900DD
:0C0BA700C2A5752701D006D0D0D0E032E6
:100F1E0075FEC175FF9875FEC2E4F5FF75CF1075AD
:100F2E0091FF439108D2935391FBD29275985043FF
:100F3E00878053C8CF438E0253890F438920758D06
:080F4E00B2C28ED28EC2AC22A9
:030FD100011D01FE
:0F10D600439A0743A120C280C2A5C281C28222D1
:10104600758AA3758CFDC28CD2A9D28CE4F5C9F53C
:0E105600C875CBFC75CA18C2CAD2ADD2CA2268
:0D000E00758B54758DE8C28ED2ABD28E2258
:03001B0002111DB2
:07111D00758B54758DE8325B
:03002B000211249B
:03112400C2CF3205
:100D9A000000000000000005000A0BB800C800644B
:100DAA000002000000000004FFFFFFFFFFFFFFFF3B
:100DBA000014022A04081705010E022A0408150560
:100DCA0000E8022A04080F0500DC022A04081105BB
:100DDA0000E0022A0408130500E5022A04081305A4
:100DEA00010F022A0408130500E0022A0408130569
:100DFA0000E2022A0408110500D6022A04081D0589
:020E0A0000CF17
:040FD4004100930045
:0B10E500900DA4E493FE740193FF2221
:0B10F000900DA8E493FE740193FF2212
:08110500900DA2740193FF227A
:031127007F012223
:100F8900AD07ED75F008A424C2F582E4340DF583AC
:100F9900E493FEED75F008A424C3F582E4340DF55D
:0C0FA90083E4937C002400FFEC3EFE2259
:1010B200EF75F008A424BFF582E4340DF583E493C0
:0210C200FF220B
:08110D00900D9C740193FF2278
:1010C400EF75F008A424C0F582E4340DF583E493AD
:0210D400FF22F9
:08111500900000E0C313FF226B
:0A10FB00900000E075F00384FF226E
:10109D00120F89EF7803C333CE33CED8F9FF7C001E
:0510AD007D0A0209FCB0
:100E7D00E4FBFAF50BF50AF509F508750B38750A5B
:100E8D00D375090CF508EBC3941774809480503218
:100E9D00AF0BAE0AAD09AC087801120A858F0B8E27
:100EAD000A8D098C0830D717741F2AF582E4340097
:100EBD00F583EBF00AEAC3940A7480948050030B17
:040ECD0080C48A5003
:010ED10022FE
:10002E00EF1460121460141460111460152404701F
:10003E0019900DBC8008900DBD8003900DBEE49309
:0D004E00FF22900DAE740193FF227F00226F
:10102700900DA0740193900000F0900DBA74019395
:0F103700900074F0120E7DE4900072F0A3F0228E
:10068300E4F508F50CF50BF50AF509F510F50FF58A
:100693000EF50D12112D500302079F1210028F0C3D
:1006A3008E0B8D0A8C09E4FBEBC395505047AF0CBE
:1006B300AE0BAD0AAC097801120A858F0C8E0B8D37
:1006C3000A8C0930D72CE47F01FEFDFC741F2BF547
:1006D30082E43400F583E0F9F8120A98E5104FF547
:1006E30010E50F4EF50FE50E4DF50EE50D4CF50D2E
:1006F30005080B80B3AF087E00C3EF9402748094A7
:10070300804018D200EF9403748094804005121146
:1007130030800812110DEF6002C20020002CE4FFAC
:10072300FEFDFCAB10AA0FA90EA80DC3120A74603C
:1007330010900073E004F07006900072E004F08003
:1007430020E4900072F0A3F08017900070E004F0B2
:10075300700690006FE004F0E4F510F50FF50EF568
:100763000D1210E5D3900073E09F900072E09E405D
:100773000A121130E4900072F0A3F0D3900070E0FD
:10078300942C90006FE09401401D1211309000935F
:100793007401F0E490006FF0A3F0800B900DAAE4D5
:0F07A300740193FF1207B3AF10AE0FAD0EAC0D84
:0107B2002224
:040FD80041009A003A
:1008D20075F002900075120ACBE0FEA3E0FFE5136B
:1008E20075F002900029020ACBE51275F002900021
:1008F20001020ACBE51275F002900051020ACB7494
:100902003D2516F582E43400F58322D3E5149FEEEB
:100912006480F8E5136480982274652512F582E4F8
:100922003400F58322D3FFED9FEE6480F8EC6480FF
:10093200982274892512F582E43400F58322E004BA
:10094200F074152512F582E43400F58322E513755F
:10095200F002900075020ACBFEC3E5159FEE64809B
:10096200F8E51464809822E54B554FFFE54A554E51
:10097200FEE549554DFDE548554CFC2274472512CC
:10098200F582E43400F58322E4F0FFFEFDFCAB4B7C
:10099200AA4AA949A848C3020A747E00900096E0B8
:1009A200FCA3E0FD1209EA8EE78FE622E0FEA3E057
:1009B200FF75F00222A4FFE0C39FE5F06480F874A3
:1009C200809822900074E0FB3395E0FAEBAE0222AD
:1009D200E0FCA3E0FDEF22E0FCA3E0C39F22900035
:0809E20074E0FF3395E0FE22F2
:0C001E00EF4E6007EF1F70F81E80F52207
:03005B00020D088B
:100D0800C0E0C0F0C083C082C0D075D000C000C0B1
:0D0D180001C002C003C004C005C006C00732
:100D2500C20290009BE01208E2E5E5F0A3E5E4F0DD
:100D350090009BE004F0E0C39550400BE4F0900078
:100D450071E04480F08002D20290009BE0FF121017
:100D5500B212099C90009BE0FF1210C4E5E254809A
:100D65004FF5E290009BE0241FF582E43400F58303
:0A0D7500E04480F5E8300202D2EEFF
:100D7F00D007D006D005D004D003D002D001D000C8
:0B0D8F00D0D0D082D083D0F0D0E03272
:100E0C00D2AF75E880C201E490009BF0900071F0C5
:100E1C00121027E4FF12002EEF2401FDE433FC7EB8
:100E2C000B7FB81209FC900096EEF0A3EFF0E4FFF4
:100E3C001210B212099C7F0212002EEFC454F0FE65
:100E4C00C006E4FF12002ED0E02FF5E17F03120064
:100E5C002EE5E254804FF5E27F0112002E8FE31253
:100E6C000ED243A91090001FE042E8120F56021058
:010E7C0082F3
:03112A00D2EE22E0
:100FDD00E4FD900071E0547FF0D2EE900071E020BE
:100FED00E7127FE87E0312001E43CF100DEDC39470
:040FFD003240E82274
:0110010022CC
:100F5600750810120FDDAF081508EF70F612106451
:100F66001211058F08120FDDE4F509E509C3955046
:100F76005009AF09120BB3050980F0AF081508EF49
:020F860070E316
:010F88002246
:10108200E4FFEFC395505012EF1208E21209D21298
:0A10920008EDECF0A3EDF00F80E88C
:01109C002231
:10100200E490009CF0F511E511C39550500EAF111C
:10101200120BB3AF1112005E051180EBAF4BAE4A5B
:04102200AD49AC48E0
:0110260022A7
:02005E008F12FF
:10006000E4F51A75F002EF1208F01209AEE512126B
:1000700008E51209D9F514EC9EF513E47F01FEFDA5
:10008000FCA912A801120A988F4F8E4E8D4D8C4CF0
:10009000AF12120F898E188F19C3E5149519E51840
:1000A00012091240057515018003E4F515E5156484
:1000B0000160030201E5743D2512120905E0C394B5
:1000C000FA500A743D2512120905E004F01209697C
:1000D000E4FBFAF9F8C3120A7460030201C8900045
:1000E00000E0F517121127EF6028E4F515F516E585
:1000F00016C39550500F120901E0C3940140020548
:1001000015051680EAE515C394034006740F2517FC
:10011000F517743D2512120905E0C3951750030227
:1001200001C8E4F51512110DEF7051F516E516C36F
:100130009550501AE512651660101210FB12090155
:10014000E0C39F40057515018004051680DF12117C
:1001500027EF7052E515704EF516E516C395505011
:1001600045E512651660111210FB74472516120939
:1001700082E0C39F4002802B051680DE121127EF1C
:100180007024F517F516E516C39550500F120901A6
:10019000E0C3940240020517051680EAE517C394F0
:1001A000034003751501E515B40102D200E54B4586
:1001B0004FFFE54A454EFEE549454DFDE548454CB6
:1001C0008F4B8E4A8D49F54812091BE4F012093411
:1001D000E4F01208F6E4F0A3F074152512F582E4B9
:1001E00034000203B8AF1212109D12090D4008121C
:1001F000097EE004F0800B90009CE004F012097E80
:10020000E4F01209E0C3E49FFDE49EFCC3E5149D05
:10021000EC120912406612090D506112091BE4121A
:10022000094212098A60030203251208F6E51385C4
:1002300014F0120A511210F01208F6E0FCA3E0C309
:1002400012092A40091208EBE475F001802112100E
:10025000F0C3E49FFFE49EFE1208F6E0FCA3E0C3B7
:1002600012092A40030203251208EB74FFF5F0126D
:100270000A511208F6E4F0A3F0020325900074E09E
:10028000FFFD3395E0FCC3E49DFDE49CFCC3E51455
:100290009DEC120912505712091B120940E4F0128A
:1002A000091BE0FE75F00A84E5F07034EEC3946437
:1002B000400E12091BE4F0D20190009304F080205C
:1002C0001208EBC083C0821209D2A2E713FF339554
:1002D000E0FEC3ED9FFFEC9ED082D083F0A3EFF051
:1002E000900095E06512703D74FFF002032512093D
:1002F000E012090D402F12091B12098A70271209FA
:1003000043120940E0B4201D120943E4F090007448
:10031000E0A2E713A2E713FF3395E0FE1208EBEE2D
:100320008FF0120A511209694D4E4F70030203C437
:10033000E519AE187802CEA2E713CE13D8F8FFC3A2
:10034000E5199FFFE5189EFEC312090E506F1209B2
:1003500034E004F01211158F17E4F516E516C39575
:1003600050500F120901E0C3940140020515051613
:1003700080EAE515C394034006900000E0F51712EB
:100380000934E0C395174072120934E4F0AF4FAE60
:100390004EAD4DAC4C120A67E54B5FFFE54A5EFE81
:1003A000E5495DFDE5485C8F4B8E4A8D49F5487403
:1003B0003D2512F582E43400F583E4F0221209347D
:1003C000E014F022743D2512120905E4F0E5501402
:1003D0006512702690009CE0C39550401DE4F51610
:1003E000E516C39550500D120901E0600375150123
:0A03F000051680ECE5157002C2004E
:0103FA0022E0
:10106400E4FFEFC39550501575F002EF1208E51236
:0D10740009D2120951ECF0A3EDF00F80E558
:01108100224C
:020BB3008F139E
:100BB500EF1208D21209D9F515EC9EF514AF1312F0
:100BC5000F89AD07AC06D3E5159DEC120960500BF6
:100BD500C3E49DFFE49C12095A500B1208E0E0FEA5
:100BE500A3E0FF020C5BECA2E713FEED13FFD312AB
:100BF500095C500BC3E49FFFE49E12095A5027126B
:100C0500094FE0FCA3E0FDECC313FEED13FFC3EDBC
:100C15009FFDEC9EFC1208E0E0C313FEA3E0132D3C
:100C2500FFEC3EFE803012094FE0FCA3E0FDAE0470
:100C35007803CEC313CE13D8F9FFC3ED9FFDEC9E09
:100C4500FC1208E0E0FEA3E07803CEC313CE13D870
:100C5500F92DFFEC3EFE12094FEEF0A3EFF0E51380
:080C65001208D2EEF0A3EFF03B
:010C6D002264
:03112D00A20122FA
:03113000D20122C7
:100ED200E4FFEFC39550502B743D2F120905E4F047
:100EE20074652F12091FE4F074892F120938E4F097
:100EF200EF1208F8E4F0A3F074472F120982E4F02D
:100F02000F80CFE4F54BF54AF549F548900095740A
:0B0F1200FFF0E4900098F0A3F0C20193
:010F1D0022B1
:0207B3008F11A4
:1007B50090009AE0C394034035E4F0900093E07014
:1007C50022F512E512C39550501975F002E5121283
:1007D50009541209AEE5121208F0EEF0A3EFF00588
:1007E5001280E0120ED2C201E4900093F022900034
:1007F50094E004F0E0B51108121064E4900095F05F
:10080500900094E0D3951150030208D1E4F512E568
:1008150012C39550507A75F002E512120954120967
:10082500AEE5121208E51209D9FFEC9EAD07FC9062
:100835000093E070291209C57802C333CE33CED8B0
:10084500F91209274040E49BFFE49AFEEF7802C3C2
:1008550033CE33CED8F9C3120928502A8032120973
:10086500C57803C333CE33CED8F91209274017E430
:100875009BFFE49AFEEF7803C333CE33CED8F9FF5E
:10088500C3120929400AAF12120BB305120208144C
:10089500E512B55006900095E004F0E51175F008F5
:1008A5009000941209B74024E4F0C20090009AE049
:1008B50004F0E51175F0049000951209B7400DE4B8
:0C08C50090009AF0121082120ED2C201B4
:0108D1002204
:100C88000203FBE493A3F8E493A34003F68001F284
:100C980008DFF48029E493A3F85407240CC8C3336D
:100CA800C4540F4420C8834004F456800146F6DF3C
:100CB800E4800B0102040810204080900FB5E47E08
:100CC800019360BCA3FF543F30E509541FFEE49331
:100CD800A360010ECF54C025E060A840B8E493A3F8
:100CE800FAE493A3F8E493A3C8C582C8CAC583CA23
:100CF800F0A3C8C582C8CAC583CADFE9DEE780BEDB
:010FDC000014
:1009EA00EF8DF0A4A8F0CF8CF0A428CE8DF0A42E21
:0209FA00FE22DB
:1009FC00BC000BBE0029EF8DF084FFADF022E4CCDF
:100A0C00F875F008EF2FFFEE33FEEC33FCEE9DECA7
:100A1C00984005FCEE9DFE0FD5F0E9E4CEFD22EDED
:100A2C00F8F5F0EE8420D21CFEADF075F008EF2F37
:100A3C00FFED33FD4007985006D5F0F222C398FD28
:050A4C000FD5F0EA22C5
:100A5100C5F0F8A3E028F0C5F0F8E5821582700230
:060A61001583E038F022CD
:0D0A6700CFF4CFCEF4CECDF4CDCCF4CC2224
:100A7400EB9FF5F0EA9E42F0E99D42F0E89C45F0D8
:010A8400224F
:100A8500E8600FECC313FCED13FDEE13FEEF13FF4F
:030A9500D8F12273
:100A9800E8600FEFC333FFEE33FEED33FDEC33FCBC
:030AA800D8F12260
:100AAB007401FF3395E0FEFDFC080808E62FFFF606
:100ABB0018E63EFEF618E63DFDF618E63CFCF6227F
:0C0ACB00A42582F582E5F03583F5832236
:00000001FF
