:0300000002061ED7
:0C061E00787FE4F6D8FD75815002066577
:08000300120ABF12097B80FB09
:03094200012F0082
:100569008F1E30904BEF700D12047EE53860030248
:10057900061DF53022AF1E7E00EF64037002805322
:10058900EF640D4E7002803FEF64084E7002804F99
:10059900EF64124E7002805FEF64174E7002804B59
:1005A900EF641C4E70028067EF64214E70668053C1
:1005B900E51E700A12047EE5387059F53022AF1E27
:1005C9007E00EF64037006753003F53822EF640D81
:1005D9004E7006753002F53822EF64084E700675C4
:1005E9003020F53822EF64124E7006753006F53862
:1005F90022EF64174E7006753007F53822EF641C38
:100609004E7006753001F53822EF64214E7005757C
:050619003004F5382259
:100ABF0012002E1209AD7F02120907120B65120BDD
:100ACF00357BFF7A05796912000E7D807C257F0CBE
:090ADF0012071B43CF01D2AF2224
:10097B0043CF10D280120B1E7B007A00791F120915
:10098B00DDEC4D4E4F601A7B007A00791F7F287E7D
:10099B00007D007C00120AE8AB307D557FFF120A08
:0209AB000D221B
:03000B000208C622
:1008C600C0E0C0F0C083C082C0D075D000C000C0F8
:1008D60001C002C003C004C005C006C007758AF483
:1008E600758CE8120B04D007D006D005D004D003CF
:1008F600D002D001D000D0D0D082D083D0F0D0E0CA
:0109060032BE
:03001B0002001AC6
:01001A0032B3
:03002B00020028A8
:03002800C2CF3212
:03003B0002083187
:10083100C0E0C0F0C083C082C0D075D000C000C08D
:1008410001C002C003C004C005C006C007E59D3059
:10085100E106539DFD753E01E59D30E009539DFE86
:10086100753901120786D007D006D005D004D00310
:10087100D002D001D000D0D0D082D083D0F0D0E04F
:010881003244
:100A6900EFFD7C00D394027480948040037F0122BF
:100A7900ED4C7008439A02539BFDFF22EF6401700D
:0C0A890008439A01539BFEFF227F0122CC
:070B5E0012003EFF020A69CC
:020907008F3F20
:10090900D3EF94027480948040037F0122E4F54E72
:10091900E54EC3953F5016744F254EF8A64E744FB9
:10092900254EF9E4FAFB120B5E054E80E3E54E65B0
:080939003F60037F01227F00F3
:010941002293
:1009AD00758E07438901758AF4758CE8C28CD2A9BE
:1009BD00D28C438920758B60758D60C28ED2ABD27F
:1009CD008EE4F5C875CB83F5CAC2CAD2ADD2CA22A0
:10071B008F3F8C408D415391F543920A758FC07575
:10072B009D50AF3FE4FCFDFE7B407A42790FF812FF
:10073B000084C006C007AE40AF41AB07AA06E4F980
:10074B00F8D007D0061208828F9EAF3FE4FCFDFE67
:10075B007B407A42790FF8120084C006C007AE4086
:10076B00AF41AB07AA06E4F9F8D007D0061208820E
:0B077B0078081200E48F9575A9012298
:0A001E008F9FE53E60FCE4F53E22F2
:060A95008B468A478948E8
:100A9B00E4FEEEC39404748094805015AB46AA47D1
:100AAB00A9488E82758300120057FF12001E0E801C
:030ABB00E17F00D8
:010ABE002215
:060A0D008F3F8D408B417C
:100A13007E007F047D007B007A0079421201B98554
:100A23003F42854043854144E54225432544F545FE
:090A33007B007A007942020A9569
:03003800AF9F2255
:0E0B4700E53C30E706E4F53C7F01227F00220A
:100786001200388F49E53C5480704AE53C30E61249
:10079600AF49EF64FB7007433C80752F0122753C1F
:1007A6000022E53C6405700DE549B53D05433C4036
:1007B6008003E4F53C7431253CF8A649053CE53157
:1007C6002532253325342535F53DE53164A560050B
:0507D600E4F53CF53DD7
:0107DB0022FB
:10047E00120B47EF7003020568E534FEE5358E3A40
:10048E00F53B7E007F077D007B007A0079311201FB
:10049E00B9E53B853AF012018604FF01000504011F
:1004AE00010509010205040103050E0104051301EE
:1004BE000505180106051D0107052201080527017E
:1004CE0009052C010A0531010B0536010C053B010E
:1004DE000D0540010E054A020005450201055403B3
:1004EE0000054F030105590401055E0402000005D5
:1004FE0065E4F530805D75300480587530018053A9
:10050E00753020804E7530058049753008804475F1
:10051E00300A803F753013803A753014803575304F
:10052E00158030753002802B7530038026753006AD
:10053E008021753007801C75302180177530228020
:10054E0012753030800D7530318008753041800362
:0B055E0075304275380122E4F53022B0
:100945000115FF60280000000000000001020304FB
:1009550005060708090A0B0C0D0E0F1011121314CA
:0F09650015161718191A1B1C1D1E1F20212223DF
:1006AA00E4F540F5417F011207DCEF70050541755D
:1006BA0040017F021207DCEF700505417540027F99
:1006CA00031207DCEF700505417540037F0412072A
:1006DA00DCEF700505417540047F051207DCEF70F9
:1006EA000505417540057F061207DCEF70050541D7
:1006FA007540067F071207DCEF7005054175400754
:10070A00D3E54194017480948040037540FFAF4063
:01071A0022BC
:100B3500120A3CE4F510FB7A007916FFFEFDFC0273
:020B45000AE8BC
:100341007B007A0079161209DDEC4D4E4F70037F68
:10035100FF227B007A0079167FA07E007D007C0061
:10036100120AE81206AA8F3FEFF470037FFF22E51D
:100371001014603014606C14700302042E240360A6
:1003810003020478E53F7002FF22853F157B007A66
:100391000079087FA07E007D007C00120AE87510BC
:1003A1000102047BE515653F60030204787B007A56
:1003B1000079081209DDEC4D4E4F700302047B7B7E
:1003C100007A0079087FA07E007D007C00120AE897
:1003D100751002E51575F005A42400F582E43400DA
:1003E100020473E515653F6012E4F510E51575F03B
:1003F10005A42401F582E4340080777B007A00793A
:10040100081209DDEC4D4E4F60707B007A007908CF
:100411007FA07E007D007C00120AE8751003E515BF
:1004210075F005A42402F582E434008045E51565E4
:100431003F6012E4F510E51575F005A42404F5827A
:10044100E43400802D7B007A0079081209DDEC4D3F
:100451004E4F60267B007A0079087FA07E007D00E8
:100461007C00120AE8E51575F005A42403F582E481
:0C0471003400F583E0FF22E4F5107FFF6B
:01047D00225C
:0C000E00EA494B60068B128A1389142209
:100B1E001203418F11E513451445126009851482A5
:070B2E008513831201B722B9
:1007DC00EFFD7C0064017005A29433FF22ED6402EE
:1007EC004C7005A2A633FF22EFFD7C00640370055C
:1007FC00A29533FF22ED64044C7005A2A033FF22B6
:10080C00EFFD7C0064057005A2A133FF22ED6406A8
:10081C004C7005A2A433FF22EF64077005A2A53328
:05082C00FF227FFF2206
:100A3C0053A1FE43A20153A1FD43A20253A1EF43D4
:100A4C00A21053A1DF43A22053A1BF43A240539154
:0D0A5C00EF4392105391DF4392207F01225F
:070B65005391FE43920122AF
:06097400044A000000002F
:0A002E00E4F54DF54CF54BF54A22C0
:100B0400AF4DAE4CAD4BAC4AEF2401F54DE43EF590
:0A0B14004CE43DF54BE43CF54A22A9
:090B5500AF4DAE4CAD4BAC4A2291
:100AE8008F438E428D418C40120B55120128AF4323
:0C0AF800AE42AD41AC409000040201424F
:1009DD008B408A4189429000041200F8120166C3CF
:1009ED00E54D9BFBE54C9AFAE54B99F9E54A98F8EC
:1009FD00C31200D3E440047F018001FFFEFDFC2201
:10062A00020003E493A3F8E493A34003F68001F2E3
:10063A0008DFF48029E493A3F85407240CC8C333D1
:10064A00C4540F4420C8834004F456800146F6DFA0
:10065A00E4800B0102040810204080900942E47EE5
:10066A00019360BCA3FF543F30E509541FFEE49395
:10067A00A360010ECF54C025E060A840B8E493A35C
:10068A00FAE493A3F8E493A3C8C582C8CAC583CA87
:10069A00F0A3C8C582C8CAC583CADFE9DEE780BE3F
:01097A00007C
:10003E00BB010689828A83E0225002E722BBFE02C0
:09004E00E32289828A83E49322F3
:10005700BB010CE58229F582E5833AF583E022505E
:1000670006E92582F8E622BBFE06E92582F8E222A8
:0D007700E58229F582E5833AF583E49322C2
:10008400E88FF0A4CC8BF0A42CFCE98EF0A42CFC1B
:100094008AF0EDA42CFCEA8EF0A4CDA8F08BF0A499
:1000A4002DCC3825F0FDE98FF0A42CCD35F0FCEBF8
:1000B4008EF0A4FEA9F0EB8FF0A4CFC5F02ECD39BD
:0F00C400FEE43CFCEAA42DCE35F0FDE43CFC222A
:10088200C2D5E830E70FB2D5E4C39BFBE49AFAE4A1
:1008920099F9E498F8EC30E717B2D51208B81202C9
:1008A20021E4C39BFBE49AFAE499F9E498F8800303
:1008B20012022130D50DE4C39FFFE49EFEE49DFDAC
:0408C200E49CFC2294
:1000D300EB9FF5F0EA9E42F0E99D42F0E89C45F083
:0100E30022FA
:1000E400E86010ECA2E713FCED13FDEE13FEEF1332
:0400F400FFD8F0221F
:1000F800BB010DE58229F582E5833AF5830202BF4B
:100108005007E92582F80202B3BBFE07E92582F809
:100118000202CBE58229F582E5833AF5830202D70C
:10012800BB010789828A830203295005E9F8020383
:0A0138001DBBFE05E9F802033522A5
:10014200BB010DE58229F582E5833AF58302032995
:100152005007E92582F802031DBBFE07E92582F854
:04016200020335223D
:10016600BB010789828A830202F45005E9F802027C
:10017600E7BBFE05E9F802030089828A8302030DC4
:10018600D083D082F8E4937012740193700DA3A308
:1001960093F8740193F5828883E473740293B5F03F
:0D01A600067403936860E9A3A3A3A380D8A7
:0601B3008A838982E473D7
:1001B900EF4E6012EF60010EEDBB010B89828A835D
:1001C900F0A3DFFCDEFA2289F05007F709DFFCA96A
:0C01D900F022BBFEFCF309DFFCA9F022C1
:1001E50075F008758200EF2FFFEE33FECD33CDCCD1
:1001F50033CCC58233C5829BED9AEC99E582984054
:100205000CF582EE9BFEED9AFDEC99FC0FD5F0D630
:10021500E4CEFBE4CDFAE4CCF9A88222B800C1B95A
:100225000059BA002DEC8BF084CFCECDFCE5F0CB98
:10023500F97818EF2FFFEE33FEED33FDEC33FCEBD1
:1002450033FB10D703994004EB99FB0FD8E5E4F98C
:10025500FA227818EF2FFFEE33FEED33FDEC33FC79
:10026500C933C910D7059BE99A4007EC9BFCE99A6D
:10027500F90FD8E0E4C9FAE4CCFB2275F010EF2FB2
:10028500FFEE33FEED33FDCC33CCC833C810D707B2
:100295009BEC9AE899400AED9BFDEC9AFCE899F8ED
:0E02A5000FD5F0DAE4CDFBE4CCFAE4C8F92280
:0C02B300E6FC08E6FD08E6FE08E6FF2277
:0C02BF00E0FCA3E0FDA3E0FEA3E0FF22B2
:0C02CB00E2FC08E2FD08E2FE08E2FF226F
:1002D700E493FC740193FD740293FE740393FF226D
:0D02E700E6FB08E6F908E6FA08E6CBF82287
:0C02F400E0F8A3E0F9A3E0FAA3E0FB228D
:0D030000E2FB08E2F908E2FA08E2CBF8227D
:10030D00E493F8740193F9740293FA740393FB2246
:0C031D00ECF608EDF608EEF608EFF6220C
:0C032900ECF0A3EDF0A3EEF0A3EFF02247
:0C033500ECF208EDF208EEF208EFF22204
:00000001FF
